{"contracts/CrowdSourcingFactory.sol":{"CrowdSourcingFactory":{"abi":[{"inputs":[{"internalType":"address","name":"_implementation","type":"address"}],"stateMutability":"nonpayable","type":"constructor"},{"anonymous":false,"inputs":[{"indexed":true,"internalType":"address","name":"previousOwner","type":"address"},{"indexed":true,"internalType":"address","name":"newOwner","type":"address"}],"name":"OwnershipTransferred","type":"event"},{"anonymous":false,"inputs":[{"indexed":true,"internalType":"address","name":"owner","type":"address"},{"indexed":false,"internalType":"uint256","name":"amount","type":"uint256"},{"indexed":false,"internalType":"address","name":"cloneAddress","type":"address"},{"indexed":false,"internalType":"string","name":"fundingCID","type":"string"}],"name":"newCrowdFundingCreated","type":"event"},{"inputs":[{"internalType":"uint256","name":"","type":"uint256"}],"name":"_deployedContracts","outputs":[{"internalType":"address","name":"","type":"address"}],"stateMutability":"view","type":"function"},{"inputs":[{"internalType":"string","name":"_fundingCId","type":"string"},{"internalType":"uint256","name":"_amount","type":"uint256"},{"internalType":"uint256","name":"_duration","type":"uint256"}],"name":"createCrowdFundingContract","outputs":[{"internalType":"address","name":"","type":"address"}],"stateMutability":"payable","type":"function"},{"inputs":[],"name":"deployedContracts","outputs":[{"internalType":"address[]","name":"","type":"address[]"}],"stateMutability":"view","type":"function"},{"inputs":[],"name":"fundingFee","outputs":[{"internalType":"uint256","name":"","type":"uint256"}],"stateMutability":"view","type":"function"},{"inputs":[],"name":"owner","outputs":[{"internalType":"address","name":"","type":"address"}],"stateMutability":"view","type":"function"},{"inputs":[],"name":"renounceOwnership","outputs":[],"stateMutability":"nonpayable","type":"function"},{"inputs":[{"internalType":"address","name":"newOwner","type":"address"}],"name":"transferOwnership","outputs":[],"stateMutability":"nonpayable","type":"function"},{"inputs":[],"name":"withdrawFunds","outputs":[],"stateMutability":"nonpayable","type":"function"},{"stateMutability":"payable","type":"receive"}],"evm":{"bytecode":{"linkReferences":{},"object":"60a060405266038d7ea4c6800060025534801561001b57600080fd5b50604051610a04380380610a0483398101604081905261003a916100a4565b61004333610054565b6001600160a01b03166080526100d4565b600080546001600160a01b038381166001600160a01b0319831681178455604051919092169283917f8be0079c531659141344cd1fd0a4f28419497f9722a3daafe3b4186f6b6457e09190a35050565b6000602082840312156100b657600080fd5b81516001600160a01b03811681146100cd57600080fd5b9392505050565b6080516109156100ef60003960006102f501526109156000f3fe60806040526004361061007f5760003560e01c8063b91737041161004e578063b917370414610112578063c43b842314610132578063c54a958814610145578063f2fde38b1461016757600080fd5b806324600fc31461008b5780635d16e120146100a2578063715018a6146100cb5780638da5cb5b146100e057600080fd5b3661008657005b600080fd5b34801561009757600080fd5b506100a0610187565b005b3480156100ae57600080fd5b506100b860025481565b6040519081526020015b60405180910390f35b3480156100d757600080fd5b506100a0610268565b3480156100ec57600080fd5b506000546001600160a01b03165b6040516001600160a01b0390911681526020016100c2565b34801561011e57600080fd5b506100fa61012d3660046106ab565b61027c565b6100fa6101403660046106da565b6102a6565b34801561015157600080fd5b5061015a610489565b6040516100c2919061079e565b34801561017357600080fd5b506100a06101823660046107eb565b6104eb565b61018f610564565b47806101d85760405162461bcd60e51b81526020600482015260136024820152726e6f7468696e6720746f20776974686472617760681b60448201526064015b60405180910390fd5b604051600090339083908381818185875af1925050503d806000811461021a576040519150601f19603f3d011682016040523d82523d6000602084013e61021f565b606091505b50509050806102645760405162461bcd60e51b81526020600482015260116024820152701dda5d1a191c985dd85b0819985a5b1959607a1b60448201526064016101cf565b5050565b610270610564565b61027a60006105be565b565b6001818154811061028c57600080fd5b6000918252602090912001546001600160a01b0316905081565b60006002543410156102ee5760405162461bcd60e51b815260206004820152601160248201527019195c1bdcda5d081d1bdbc81cdb585b1b607a1b60448201526064016101cf565b60006103197f000000000000000000000000000000000000000000000000000000000000000061060e565b90506000816001600160a01b031686868660405160240161033c9392919061086b565b60408051601f198184030181529181526020820180516001600160e01b031663025df42360e61b179052516103719190610890565b6000604051808303816000865af19150503d80600081146103ae576040519150601f19603f3d011682016040523d82523d6000602084013e6103b3565b606091505b50509050806103f65760405162461bcd60e51b815260206004820152600f60248201526e18dc99585d1a5bdb8819985a5b1959608a1b60448201526064016101cf565b6001805480820182556000919091527fb10e2d527612073b26eecdfd717e6a320cf44b4afac2b0732d9fcbe2b7fa0cf60180546001600160a01b0319166001600160a01b03841617905560025460405133917f7e4479af2e084d696e6ebdd2210744079c2160ec174a47e010176c938a96cda691610478919086908b906108ac565b60405180910390a250949350505050565b606060018054806020026020016040519081016040528092919081815260200182805480156104e157602002820191906000526020600020905b81546001600160a01b031681526001909101906020018083116104c3575b5050505050905090565b6104f3610564565b6001600160a01b0381166105585760405162461bcd60e51b815260206004820152602660248201527f4f776e61626c653a206e6577206f776e657220697320746865207a65726f206160448201526564647265737360d01b60648201526084016101cf565b610561816105be565b50565b6000546001600160a01b0316331461027a5760405162461bcd60e51b815260206004820181905260248201527f4f776e61626c653a2063616c6c6572206973206e6f7420746865206f776e657260448201526064016101cf565b600080546001600160a01b038381166001600160a01b0319831681178455604051919092169283917f8be0079c531659141344cd1fd0a4f28419497f9722a3daafe3b4186f6b6457e09190a35050565b6000604051733d602d80600a3d3981f3363d3d373d3d3d363d7360601b81528260601b60148201526e5af43d82803e903d91602b57fd5bf360881b60288201526037816000f09150506001600160a01b0381166106a65760405162461bcd60e51b8152602060048201526016602482015275115490cc4c4d8dce8818dc99585d194819985a5b195960521b60448201526064016101cf565b919050565b6000602082840312156106bd57600080fd5b5035919050565b634e487b7160e01b600052604160045260246000fd5b6000806000606084860312156106ef57600080fd5b833567ffffffffffffffff8082111561070757600080fd5b818601915086601f83011261071b57600080fd5b81358181111561072d5761072d6106c4565b604051601f8201601f19908116603f01168101908382118183101715610755576107556106c4565b8160405282815289602084870101111561076e57600080fd5b82602086016020830137600060208483010152809750505050505060208401359150604084013590509250925092565b6020808252825182820181905260009190848201906040850190845b818110156107df5783516001600160a01b0316835292840192918401916001016107ba565b50909695505050505050565b6000602082840312156107fd57600080fd5b81356001600160a01b038116811461081457600080fd5b9392505050565b60005b8381101561083657818101518382015260200161081e565b50506000910152565b6000815180845261085781602086016020860161081b565b601f01601f19169290920160200192915050565b60608152600061087e606083018661083f565b60208301949094525060400152919050565b600082516108a281846020870161081b565b9190910192915050565b8381526001600160a01b03831660208201526060604082018190526000906108d69083018461083f565b9594505050505056fea2646970667358221220a21d803c03437df1bd56a0d2ff252804e62ce25d8d686acb59b9937ccd12411764736f6c63430008110033","opcodes":"PUSH1 0xA0 PUSH1 0x40 MSTORE PUSH7 0x38D7EA4C68000 PUSH1 0x2 SSTORE CALLVALUE DUP1 ISZERO PUSH2 0x1B JUMPI PUSH1 0x0 DUP1 REVERT JUMPDEST POP PUSH1 0x40 MLOAD PUSH2 0xA04 CODESIZE SUB DUP1 PUSH2 0xA04 DUP4 CODECOPY DUP2 ADD PUSH1 0x40 DUP2 SWAP1 MSTORE PUSH2 0x3A SWAP2 PUSH2 0xA4 JUMP JUMPDEST PUSH2 0x43 CALLER PUSH2 0x54 JUMP JUMPDEST PUSH1 0x1 PUSH1 0x1 PUSH1 0xA0 SHL SUB AND PUSH1 0x80 MSTORE PUSH2 0xD4 JUMP JUMPDEST PUSH1 0x0 DUP1 SLOAD PUSH1 0x1 PUSH1 0x1 PUSH1 0xA0 SHL SUB DUP4 DUP2 AND PUSH1 0x1 PUSH1 0x1 PUSH1 0xA0 SHL SUB NOT DUP4 AND DUP2 OR DUP5 SSTORE PUSH1 0x40 MLOAD SWAP2 SWAP1 SWAP3 AND SWAP3 DUP4 SWAP2 PUSH32 0x8BE0079C531659141344CD1FD0A4F28419497F9722A3DAAFE3B4186F6B6457E0 SWAP2 SWAP1 LOG3 POP POP JUMP JUMPDEST PUSH1 0x0 PUSH1 0x20 DUP3 DUP5 SUB SLT ISZERO PUSH2 0xB6 JUMPI PUSH1 0x0 DUP1 REVERT JUMPDEST DUP2 MLOAD PUSH1 0x1 PUSH1 0x1 PUSH1 0xA0 SHL SUB DUP2 AND DUP2 EQ PUSH2 0xCD JUMPI PUSH1 0x0 DUP1 REVERT JUMPDEST SWAP4 SWAP3 POP POP POP JUMP JUMPDEST PUSH1 0x80 MLOAD PUSH2 0x915 PUSH2 0xEF PUSH1 0x0 CODECOPY PUSH1 0x0 PUSH2 0x2F5 ADD MSTORE PUSH2 0x915 PUSH1 0x0 RETURN INVALID PUSH1 0x80 PUSH1 0x40 MSTORE PUSH1 0x4 CALLDATASIZE LT PUSH2 0x7F JUMPI PUSH1 0x0 CALLDATALOAD PUSH1 0xE0 SHR DUP1 PUSH4 0xB9173704 GT PUSH2 0x4E JUMPI DUP1 PUSH4 0xB9173704 EQ PUSH2 0x112 JUMPI DUP1 PUSH4 0xC43B8423 EQ PUSH2 0x132 JUMPI DUP1 PUSH4 0xC54A9588 EQ PUSH2 0x145 JUMPI DUP1 PUSH4 0xF2FDE38B EQ PUSH2 0x167 JUMPI PUSH1 0x0 DUP1 REVERT JUMPDEST DUP1 PUSH4 0x24600FC3 EQ PUSH2 0x8B JUMPI DUP1 PUSH4 0x5D16E120 EQ PUSH2 0xA2 JUMPI DUP1 PUSH4 0x715018A6 EQ PUSH2 0xCB JUMPI DUP1 PUSH4 0x8DA5CB5B EQ PUSH2 0xE0 JUMPI PUSH1 0x0 DUP1 REVERT JUMPDEST CALLDATASIZE PUSH2 0x86 JUMPI STOP JUMPDEST PUSH1 0x0 DUP1 REVERT JUMPDEST CALLVALUE DUP1 ISZERO PUSH2 0x97 JUMPI PUSH1 0x0 DUP1 REVERT JUMPDEST POP PUSH2 0xA0 PUSH2 0x187 JUMP JUMPDEST STOP JUMPDEST CALLVALUE DUP1 ISZERO PUSH2 0xAE JUMPI PUSH1 0x0 DUP1 REVERT JUMPDEST POP PUSH2 0xB8 PUSH1 0x2 SLOAD DUP2 JUMP JUMPDEST PUSH1 0x40 MLOAD SWAP1 DUP2 MSTORE PUSH1 0x20 ADD JUMPDEST PUSH1 0x40 MLOAD DUP1 SWAP2 SUB SWAP1 RETURN JUMPDEST CALLVALUE DUP1 ISZERO PUSH2 0xD7 JUMPI PUSH1 0x0 DUP1 REVERT JUMPDEST POP PUSH2 0xA0 PUSH2 0x268 JUMP JUMPDEST CALLVALUE DUP1 ISZERO PUSH2 0xEC JUMPI PUSH1 0x0 DUP1 REVERT JUMPDEST POP PUSH1 0x0 SLOAD PUSH1 0x1 PUSH1 0x1 PUSH1 0xA0 SHL SUB AND JUMPDEST PUSH1 0x40 MLOAD PUSH1 0x1 PUSH1 0x1 PUSH1 0xA0 SHL SUB SWAP1 SWAP2 AND DUP2 MSTORE PUSH1 0x20 ADD PUSH2 0xC2 JUMP JUMPDEST CALLVALUE DUP1 ISZERO PUSH2 0x11E JUMPI PUSH1 0x0 DUP1 REVERT JUMPDEST POP PUSH2 0xFA PUSH2 0x12D CALLDATASIZE PUSH1 0x4 PUSH2 0x6AB JUMP JUMPDEST PUSH2 0x27C JUMP JUMPDEST PUSH2 0xFA PUSH2 0x140 CALLDATASIZE PUSH1 0x4 PUSH2 0x6DA JUMP JUMPDEST PUSH2 0x2A6 JUMP JUMPDEST CALLVALUE DUP1 ISZERO PUSH2 0x151 JUMPI PUSH1 0x0 DUP1 REVERT JUMPDEST POP PUSH2 0x15A PUSH2 0x489 JUMP JUMPDEST PUSH1 0x40 MLOAD PUSH2 0xC2 SWAP2 SWAP1 PUSH2 0x79E JUMP JUMPDEST CALLVALUE DUP1 ISZERO PUSH2 0x173 JUMPI PUSH1 0x0 DUP1 REVERT JUMPDEST POP PUSH2 0xA0 PUSH2 0x182 CALLDATASIZE PUSH1 0x4 PUSH2 0x7EB JUMP JUMPDEST PUSH2 0x4EB JUMP JUMPDEST PUSH2 0x18F PUSH2 0x564 JUMP JUMPDEST SELFBALANCE DUP1 PUSH2 0x1D8 JUMPI PUSH1 0x40 MLOAD PUSH3 0x461BCD PUSH1 0xE5 SHL DUP2 MSTORE PUSH1 0x20 PUSH1 0x4 DUP3 ADD MSTORE PUSH1 0x13 PUSH1 0x24 DUP3 ADD MSTORE PUSH19 0x6E6F7468696E6720746F207769746864726177 PUSH1 0x68 SHL PUSH1 0x44 DUP3 ADD MSTORE PUSH1 0x64 ADD JUMPDEST PUSH1 0x40 MLOAD DUP1 SWAP2 SUB SWAP1 REVERT JUMPDEST PUSH1 0x40 MLOAD PUSH1 0x0 SWAP1 CALLER SWAP1 DUP4 SWAP1 DUP4 DUP2 DUP2 DUP2 DUP6 DUP8 GAS CALL SWAP3 POP POP POP RETURNDATASIZE DUP1 PUSH1 0x0 DUP2 EQ PUSH2 0x21A JUMPI PUSH1 0x40 MLOAD SWAP2 POP PUSH1 0x1F NOT PUSH1 0x3F RETURNDATASIZE ADD AND DUP3 ADD PUSH1 0x40 MSTORE RETURNDATASIZE DUP3 MSTORE RETURNDATASIZE PUSH1 0x0 PUSH1 0x20 DUP5 ADD RETURNDATACOPY PUSH2 0x21F JUMP JUMPDEST PUSH1 0x60 SWAP2 POP JUMPDEST POP POP SWAP1 POP DUP1 PUSH2 0x264 JUMPI PUSH1 0x40 MLOAD PUSH3 0x461BCD PUSH1 0xE5 SHL DUP2 MSTORE PUSH1 0x20 PUSH1 0x4 DUP3 ADD MSTORE PUSH1 0x11 PUSH1 0x24 DUP3 ADD MSTORE PUSH17 0x1DDA5D1A191C985DD85B0819985A5B1959 PUSH1 0x7A SHL PUSH1 0x44 DUP3 ADD MSTORE PUSH1 0x64 ADD PUSH2 0x1CF JUMP JUMPDEST POP POP JUMP JUMPDEST PUSH2 0x270 PUSH2 0x564 JUMP JUMPDEST PUSH2 0x27A PUSH1 0x0 PUSH2 0x5BE JUMP JUMPDEST JUMP JUMPDEST PUSH1 0x1 DUP2 DUP2 SLOAD DUP2 LT PUSH2 0x28C JUMPI PUSH1 0x0 DUP1 REVERT JUMPDEST PUSH1 0x0 SWAP2 DUP3 MSTORE PUSH1 0x20 SWAP1 SWAP2 KECCAK256 ADD SLOAD PUSH1 0x1 PUSH1 0x1 PUSH1 0xA0 SHL SUB AND SWAP1 POP DUP2 JUMP JUMPDEST PUSH1 0x0 PUSH1 0x2 SLOAD CALLVALUE LT ISZERO PUSH2 0x2EE JUMPI PUSH1 0x40 MLOAD PUSH3 0x461BCD PUSH1 0xE5 SHL DUP2 MSTORE PUSH1 0x20 PUSH1 0x4 DUP3 ADD MSTORE PUSH1 0x11 PUSH1 0x24 DUP3 ADD MSTORE PUSH17 0x19195C1BDCDA5D081D1BDBC81CDB585B1B PUSH1 0x7A SHL PUSH1 0x44 DUP3 ADD MSTORE PUSH1 0x64 ADD PUSH2 0x1CF JUMP JUMPDEST PUSH1 0x0 PUSH2 0x319 PUSH32 0x0 PUSH2 0x60E JUMP JUMPDEST SWAP1 POP PUSH1 0x0 DUP2 PUSH1 0x1 PUSH1 0x1 PUSH1 0xA0 SHL SUB AND DUP7 DUP7 DUP7 PUSH1 0x40 MLOAD PUSH1 0x24 ADD PUSH2 0x33C SWAP4 SWAP3 SWAP2 SWAP1 PUSH2 0x86B JUMP JUMPDEST PUSH1 0x40 DUP1 MLOAD PUSH1 0x1F NOT DUP2 DUP5 SUB ADD DUP2 MSTORE SWAP2 DUP2 MSTORE PUSH1 0x20 DUP3 ADD DUP1 MLOAD PUSH1 0x1 PUSH1 0x1 PUSH1 0xE0 SHL SUB AND PUSH4 0x25DF423 PUSH1 0xE6 SHL OR SWAP1 MSTORE MLOAD PUSH2 0x371 SWAP2 SWAP1 PUSH2 0x890 JUMP JUMPDEST PUSH1 0x0 PUSH1 0x40 MLOAD DUP1 DUP4 SUB DUP2 PUSH1 0x0 DUP7 GAS CALL SWAP2 POP POP RETURNDATASIZE DUP1 PUSH1 0x0 DUP2 EQ PUSH2 0x3AE JUMPI PUSH1 0x40 MLOAD SWAP2 POP PUSH1 0x1F NOT PUSH1 0x3F RETURNDATASIZE ADD AND DUP3 ADD PUSH1 0x40 MSTORE RETURNDATASIZE DUP3 MSTORE RETURNDATASIZE PUSH1 0x0 PUSH1 0x20 DUP5 ADD RETURNDATACOPY PUSH2 0x3B3 JUMP JUMPDEST PUSH1 0x60 SWAP2 POP JUMPDEST POP POP SWAP1 POP DUP1 PUSH2 0x3F6 JUMPI PUSH1 0x40 MLOAD PUSH3 0x461BCD PUSH1 0xE5 SHL DUP2 MSTORE PUSH1 0x20 PUSH1 0x4 DUP3 ADD MSTORE PUSH1 0xF PUSH1 0x24 DUP3 ADD MSTORE PUSH15 0x18DC99585D1A5BDB8819985A5B1959 PUSH1 0x8A SHL PUSH1 0x44 DUP3 ADD MSTORE PUSH1 0x64 ADD PUSH2 0x1CF JUMP JUMPDEST PUSH1 0x1 DUP1 SLOAD DUP1 DUP3 ADD DUP3 SSTORE PUSH1 0x0 SWAP2 SWAP1 SWAP2 MSTORE PUSH32 0xB10E2D527612073B26EECDFD717E6A320CF44B4AFAC2B0732D9FCBE2B7FA0CF6 ADD DUP1 SLOAD PUSH1 0x1 PUSH1 0x1 PUSH1 0xA0 SHL SUB NOT AND PUSH1 0x1 PUSH1 0x1 PUSH1 0xA0 SHL SUB DUP5 AND OR SWAP1 SSTORE PUSH1 0x2 SLOAD PUSH1 0x40 MLOAD CALLER SWAP2 PUSH32 0x7E4479AF2E084D696E6EBDD2210744079C2160EC174A47E010176C938A96CDA6 SWAP2 PUSH2 0x478 SWAP2 SWAP1 DUP7 SWAP1 DUP12 SWAP1 PUSH2 0x8AC JUMP JUMPDEST PUSH1 0x40 MLOAD DUP1 SWAP2 SUB SWAP1 LOG2 POP SWAP5 SWAP4 POP POP POP POP JUMP JUMPDEST PUSH1 0x60 PUSH1 0x1 DUP1 SLOAD DUP1 PUSH1 0x20 MUL PUSH1 0x20 ADD PUSH1 0x40 MLOAD SWAP1 DUP2 ADD PUSH1 0x40 MSTORE DUP1 SWAP3 SWAP2 SWAP1 DUP2 DUP2 MSTORE PUSH1 0x20 ADD DUP3 DUP1 SLOAD DUP1 ISZERO PUSH2 0x4E1 JUMPI PUSH1 0x20 MUL DUP3 ADD SWAP2 SWAP1 PUSH1 0x0 MSTORE PUSH1 0x20 PUSH1 0x0 KECCAK256 SWAP1 JUMPDEST DUP2 SLOAD PUSH1 0x1 PUSH1 0x1 PUSH1 0xA0 SHL SUB AND DUP2 MSTORE PUSH1 0x1 SWAP1 SWAP2 ADD SWAP1 PUSH1 0x20 ADD DUP1 DUP4 GT PUSH2 0x4C3 JUMPI JUMPDEST POP POP POP POP POP SWAP1 POP SWAP1 JUMP JUMPDEST PUSH2 0x4F3 PUSH2 0x564 JUMP JUMPDEST PUSH1 0x1 PUSH1 0x1 PUSH1 0xA0 SHL SUB DUP2 AND PUSH2 0x558 JUMPI PUSH1 0x40 MLOAD PUSH3 0x461BCD PUSH1 0xE5 SHL DUP2 MSTORE PUSH1 0x20 PUSH1 0x4 DUP3 ADD MSTORE PUSH1 0x26 PUSH1 0x24 DUP3 ADD MSTORE PUSH32 0x4F776E61626C653A206E6577206F776E657220697320746865207A65726F2061 PUSH1 0x44 DUP3 ADD MSTORE PUSH6 0x646472657373 PUSH1 0xD0 SHL PUSH1 0x64 DUP3 ADD MSTORE PUSH1 0x84 ADD PUSH2 0x1CF JUMP JUMPDEST PUSH2 0x561 DUP2 PUSH2 0x5BE JUMP JUMPDEST POP JUMP JUMPDEST PUSH1 0x0 SLOAD PUSH1 0x1 PUSH1 0x1 PUSH1 0xA0 SHL SUB AND CALLER EQ PUSH2 0x27A JUMPI PUSH1 0x40 MLOAD PUSH3 0x461BCD PUSH1 0xE5 SHL DUP2 MSTORE PUSH1 0x20 PUSH1 0x4 DUP3 ADD DUP2 SWAP1 MSTORE PUSH1 0x24 DUP3 ADD MSTORE PUSH32 0x4F776E61626C653A2063616C6C6572206973206E6F7420746865206F776E6572 PUSH1 0x44 DUP3 ADD MSTORE PUSH1 0x64 ADD PUSH2 0x1CF JUMP JUMPDEST PUSH1 0x0 DUP1 SLOAD PUSH1 0x1 PUSH1 0x1 PUSH1 0xA0 SHL SUB DUP4 DUP2 AND PUSH1 0x1 PUSH1 0x1 PUSH1 0xA0 SHL SUB NOT DUP4 AND DUP2 OR DUP5 SSTORE PUSH1 0x40 MLOAD SWAP2 SWAP1 SWAP3 AND SWAP3 DUP4 SWAP2 PUSH32 0x8BE0079C531659141344CD1FD0A4F28419497F9722A3DAAFE3B4186F6B6457E0 SWAP2 SWAP1 LOG3 POP POP JUMP JUMPDEST PUSH1 0x0 PUSH1 0x40 MLOAD PUSH20 0x3D602D80600A3D3981F3363D3D373D3D3D363D73 PUSH1 0x60 SHL DUP2 MSTORE DUP3 PUSH1 0x60 SHL PUSH1 0x14 DUP3 ADD MSTORE PUSH15 0x5AF43D82803E903D91602B57FD5BF3 PUSH1 0x88 SHL PUSH1 0x28 DUP3 ADD MSTORE PUSH1 0x37 DUP2 PUSH1 0x0 CREATE SWAP2 POP POP PUSH1 0x1 PUSH1 0x1 PUSH1 0xA0 SHL SUB DUP2 AND PUSH2 0x6A6 JUMPI PUSH1 0x40 MLOAD PUSH3 0x461BCD PUSH1 0xE5 SHL DUP2 MSTORE PUSH1 0x20 PUSH1 0x4 DUP3 ADD MSTORE PUSH1 0x16 PUSH1 0x24 DUP3 ADD MSTORE PUSH22 0x115490CC4C4D8DCE8818DC99585D194819985A5B1959 PUSH1 0x52 SHL PUSH1 0x44 DUP3 ADD MSTORE PUSH1 0x64 ADD PUSH2 0x1CF JUMP JUMPDEST SWAP2 SWAP1 POP JUMP JUMPDEST PUSH1 0x0 PUSH1 0x20 DUP3 DUP5 SUB SLT ISZERO PUSH2 0x6BD JUMPI PUSH1 0x0 DUP1 REVERT JUMPDEST POP CALLDATALOAD SWAP2 SWAP1 POP JUMP JUMPDEST PUSH4 0x4E487B71 PUSH1 0xE0 SHL PUSH1 0x0 MSTORE PUSH1 0x41 PUSH1 0x4 MSTORE PUSH1 0x24 PUSH1 0x0 REVERT JUMPDEST PUSH1 0x0 DUP1 PUSH1 0x0 PUSH1 0x60 DUP5 DUP7 SUB SLT ISZERO PUSH2 0x6EF JUMPI PUSH1 0x0 DUP1 REVERT JUMPDEST DUP4 CALLDATALOAD PUSH8 0xFFFFFFFFFFFFFFFF DUP1 DUP3 GT ISZERO PUSH2 0x707 JUMPI PUSH1 0x0 DUP1 REVERT JUMPDEST DUP2 DUP7 ADD SWAP2 POP DUP7 PUSH1 0x1F DUP4 ADD SLT PUSH2 0x71B JUMPI PUSH1 0x0 DUP1 REVERT JUMPDEST DUP2 CALLDATALOAD DUP2 DUP2 GT ISZERO PUSH2 0x72D JUMPI PUSH2 0x72D PUSH2 0x6C4 JUMP JUMPDEST PUSH1 0x40 MLOAD PUSH1 0x1F DUP3 ADD PUSH1 0x1F NOT SWAP1 DUP2 AND PUSH1 0x3F ADD AND DUP2 ADD SWAP1 DUP4 DUP3 GT DUP2 DUP4 LT OR ISZERO PUSH2 0x755 JUMPI PUSH2 0x755 PUSH2 0x6C4 JUMP JUMPDEST DUP2 PUSH1 0x40 MSTORE DUP3 DUP2 MSTORE DUP10 PUSH1 0x20 DUP5 DUP8 ADD ADD GT ISZERO PUSH2 0x76E JUMPI PUSH1 0x0 DUP1 REVERT JUMPDEST DUP3 PUSH1 0x20 DUP7 ADD PUSH1 0x20 DUP4 ADD CALLDATACOPY PUSH1 0x0 PUSH1 0x20 DUP5 DUP4 ADD ADD MSTORE DUP1 SWAP8 POP POP POP POP POP POP PUSH1 0x20 DUP5 ADD CALLDATALOAD SWAP2 POP PUSH1 0x40 DUP5 ADD CALLDATALOAD SWAP1 POP SWAP3 POP SWAP3 POP SWAP3 JUMP JUMPDEST PUSH1 0x20 DUP1 DUP3 MSTORE DUP3 MLOAD DUP3 DUP3 ADD DUP2 SWAP1 MSTORE PUSH1 0x0 SWAP2 SWAP1 DUP5 DUP3 ADD SWAP1 PUSH1 0x40 DUP6 ADD SWAP1 DUP5 JUMPDEST DUP2 DUP2 LT ISZERO PUSH2 0x7DF JUMPI DUP4 MLOAD PUSH1 0x1 PUSH1 0x1 PUSH1 0xA0 SHL SUB AND DUP4 MSTORE SWAP3 DUP5 ADD SWAP3 SWAP2 DUP5 ADD SWAP2 PUSH1 0x1 ADD PUSH2 0x7BA JUMP JUMPDEST POP SWAP1 SWAP7 SWAP6 POP POP POP POP POP POP JUMP JUMPDEST PUSH1 0x0 PUSH1 0x20 DUP3 DUP5 SUB SLT ISZERO PUSH2 0x7FD JUMPI PUSH1 0x0 DUP1 REVERT JUMPDEST DUP2 CALLDATALOAD PUSH1 0x1 PUSH1 0x1 PUSH1 0xA0 SHL SUB DUP2 AND DUP2 EQ PUSH2 0x814 JUMPI PUSH1 0x0 DUP1 REVERT JUMPDEST SWAP4 SWAP3 POP POP POP JUMP JUMPDEST PUSH1 0x0 JUMPDEST DUP4 DUP2 LT ISZERO PUSH2 0x836 JUMPI DUP2 DUP2 ADD MLOAD DUP4 DUP3 ADD MSTORE PUSH1 0x20 ADD PUSH2 0x81E JUMP JUMPDEST POP POP PUSH1 0x0 SWAP2 ADD MSTORE JUMP JUMPDEST PUSH1 0x0 DUP2 MLOAD DUP1 DUP5 MSTORE PUSH2 0x857 DUP2 PUSH1 0x20 DUP7 ADD PUSH1 0x20 DUP7 ADD PUSH2 0x81B JUMP JUMPDEST PUSH1 0x1F ADD PUSH1 0x1F NOT AND SWAP3 SWAP1 SWAP3 ADD PUSH1 0x20 ADD SWAP3 SWAP2 POP POP JUMP JUMPDEST PUSH1 0x60 DUP2 MSTORE PUSH1 0x0 PUSH2 0x87E PUSH1 0x60 DUP4 ADD DUP7 PUSH2 0x83F JUMP JUMPDEST PUSH1 0x20 DUP4 ADD SWAP5 SWAP1 SWAP5 MSTORE POP PUSH1 0x40 ADD MSTORE SWAP2 SWAP1 POP JUMP JUMPDEST PUSH1 0x0 DUP3 MLOAD PUSH2 0x8A2 DUP2 DUP5 PUSH1 0x20 DUP8 ADD PUSH2 0x81B JUMP JUMPDEST SWAP2 SWAP1 SWAP2 ADD SWAP3 SWAP2 POP POP JUMP JUMPDEST DUP4 DUP2 MSTORE PUSH1 0x1 PUSH1 0x1 PUSH1 0xA0 SHL SUB DUP4 AND PUSH1 0x20 DUP3 ADD MSTORE PUSH1 0x60 PUSH1 0x40 DUP3 ADD DUP2 SWAP1 MSTORE PUSH1 0x0 SWAP1 PUSH2 0x8D6 SWAP1 DUP4 ADD DUP5 PUSH2 0x83F JUMP JUMPDEST SWAP6 SWAP5 POP POP POP POP POP JUMP INVALID LOG2 PUSH5 0x6970667358 0x22 SLT KECCAK256 LOG2 SAR DUP1 EXTCODECOPY SUB NUMBER PUSH30 0xF1BD56A0D2FF252804E62CE25D8D686ACB59B9937CCD12411764736F6C63 NUMBER STOP ADDMOD GT STOP CALLER "},"methodIdentifiers":{"_deployedContracts(uint256)":"b9173704","createCrowdFundingContract(string,uint256,uint256)":"c43b8423","deployedContracts()":"c54a9588","fundingFee()":"5d16e120","owner()":"8da5cb5b","renounceOwnership()":"715018a6","transferOwnership(address)":"f2fde38b","withdrawFunds()":"24600fc3"}}}}}