{"contracts/CrowdFundingContract.sol":{"CrowdFundingContract":{"abi":[{"anonymous":false,"inputs":[{"indexed":false,"internalType":"uint8","name":"version","type":"uint8"}],"name":"Initialized","type":"event"},{"anonymous":false,"inputs":[{"indexed":true,"internalType":"address","name":"donor","type":"address"},{"indexed":false,"internalType":"uint256","name":"amount","type":"uint256"},{"indexed":false,"internalType":"uint256","name":"date","type":"uint256"}],"name":"fundsDonated","type":"event"},{"anonymous":false,"inputs":[{"indexed":true,"internalType":"address","name":"owner","type":"address"},{"indexed":false,"internalType":"uint256","name":"amount","type":"uint256"},{"indexed":false,"internalType":"uint256","name":"date","type":"uint256"}],"name":"fundsWithdrawn","type":"event"},{"anonymous":false,"inputs":[{"indexed":true,"internalType":"address","name":"owner","type":"address"},{"indexed":false,"internalType":"uint256","name":"datecreated","type":"uint256"},{"indexed":false,"internalType":"uint256","name":"period","type":"uint256"}],"name":"milestoneCreated","type":"event"},{"anonymous":false,"inputs":[{"indexed":false,"internalType":"uint256","name":"yesvote","type":"uint256"},{"indexed":false,"internalType":"uint256","name":"novote","type":"uint256"}],"name":"milestoneRejected","type":"event"},{"inputs":[],"name":"amountOfDonation","outputs":[{"internalType":"uint256","name":"","type":"uint256"}],"stateMutability":"view","type":"function"},{"inputs":[],"name":"campaignDuration","outputs":[{"internalType":"uint256","name":"","type":"uint256"}],"stateMutability":"view","type":"function"},{"inputs":[],"name":"campaignEnded","outputs":[{"internalType":"bool","name":"","type":"bool"}],"stateMutability":"view","type":"function"},{"inputs":[],"name":"campaignOwner","outputs":[{"internalType":"address payable","name":"","type":"address"}],"stateMutability":"view","type":"function"},{"inputs":[{"internalType":"string","name":"milestoneCID","type":"string"},{"internalType":"uint256","name":"votingPeriod","type":"uint256"}],"name":"createNewMilestone","outputs":[],"stateMutability":"nonpayable","type":"function"},{"inputs":[{"internalType":"address","name":"","type":"address"}],"name":"donors","outputs":[{"internalType":"uint256","name":"","type":"uint256"}],"stateMutability":"view","type":"function"},{"inputs":[],"name":"etherBalance","outputs":[{"internalType":"uint256","name":"","type":"uint256"}],"stateMutability":"view","type":"function"},{"inputs":[],"name":"fundingId","outputs":[{"internalType":"string","name":"","type":"string"}],"stateMutability":"view","type":"function"},{"inputs":[],"name":"getFundingcid","outputs":[{"internalType":"string","name":"","type":"string"}],"stateMutability":"view","type":"function"},{"inputs":[],"name":"getTargetAmount","outputs":[{"internalType":"uint256","name":"","type":"uint256"}],"stateMutability":"view","type":"function"},{"inputs":[{"internalType":"string","name":"_fundingId","type":"string"},{"internalType":"uint256","name":"_amount","type":"uint256"},{"internalType":"uint256","name":"_duration","type":"uint256"}],"name":"initialize","outputs":[],"stateMutability":"nonpayable","type":"function"},{"inputs":[],"name":"makeDonation","outputs":[],"stateMutability":"payable","type":"function"},{"inputs":[{"internalType":"uint256","name":"","type":"uint256"}],"name":"milestones","outputs":[{"internalType":"string","name":"milestoneCID","type":"string"},{"internalType":"bool","name":"approved","type":"bool"},{"internalType":"uint256","name":"votingPeriod","type":"uint256"},{"internalType":"enum CrowdFundingContract.MilestoneStatus","name":"status","type":"uint8"}],"stateMutability":"view","type":"function"},{"inputs":[],"name":"numberOfDonors","outputs":[{"internalType":"uint256","name":"","type":"uint256"}],"stateMutability":"view","type":"function"},{"inputs":[],"name":"showCurrentMillestone","outputs":[{"components":[{"internalType":"string","name":"milestoneCID","type":"string"},{"internalType":"bool","name":"approved","type":"bool"},{"internalType":"uint256","name":"votingPeriod","type":"uint256"},{"internalType":"enum CrowdFundingContract.MilestoneStatus","name":"status","type":"uint8"},{"components":[{"internalType":"address","name":"donorAddress","type":"address"},{"internalType":"bool","name":"vote","type":"bool"}],"internalType":"struct CrowdFundingContract.MilestoneVote[]","name":"votes","type":"tuple[]"}],"internalType":"struct CrowdFundingContract.Milestone","name":"","type":"tuple"}],"stateMutability":"view","type":"function"},{"inputs":[],"name":"targetAmount","outputs":[{"internalType":"uint256","name":"","type":"uint256"}],"stateMutability":"view","type":"function"},{"inputs":[{"internalType":"bool","name":"vote","type":"bool"}],"name":"voteOnMilestone","outputs":[],"stateMutability":"nonpayable","type":"function"},{"inputs":[],"name":"withdrawMilestone","outputs":[],"stateMutability":"nonpayable","type":"function"},{"stateMutability":"payable","type":"receive"}],"evm":{"bytecode":{"linkReferences":{},"object":"608060405234801561001057600080fd5b50611772806100206000396000f3fe60806040526004361061010d5760003560e01c8063977d08c011610095578063ba53619311610064578063ba53619314610285578063bf2928a6146102a5578063c398d56d146102ba578063ca0cdea8146102d0578063e89e4ed6146102fd57600080fd5b8063977d08c0146102155780639cc4e85814610235578063ad66e52a1461024a578063b17fac221461025d57600080fd5b806364b2e2d9116100dc57806364b2e2d91461019357806384c67b76146101a85780638e692464146101ca57806391ac4b88146101ea578063953b8fb8146101ff57600080fd5b80633bc47fbe1461011957806340ea0a94146101485780634befdaea146101525780635f62d7471461017157600080fd5b3661011457005b600080fd5b34801561012557600080fd5b506002546101339060ff1681565b60405190151581526020015b60405180910390f35b61015061032d565b005b34801561015e57600080fd5b506004545b60405190815260200161013f565b34801561017d57600080fd5b506101866104b8565b60405161013f919061128f565b34801561019f57600080fd5b50600554610163565b3480156101b457600080fd5b506101bd61063e565b60405161013f9190611339565b3480156101d657600080fd5b506101506101e53660046113f6565b6106cc565b3480156101f657600080fd5b50600354610163565b34801561020b57600080fd5b5061016360035481565b34801561022157600080fd5b5061015061023036600461143b565b6108a4565b34801561024157600080fd5b506101bd6109d9565b34801561025657600080fd5b5047610163565b34801561026957600080fd5b506009546040516001600160a01b03909116815260200161013f565b34801561029157600080fd5b506101506102a0366004611489565b610a6b565b3480156102b157600080fd5b50610150610c62565b3480156102c657600080fd5b5061016360065481565b3480156102dc57600080fd5b506101636102eb3660046114ab565b600a6020526000908152604090205481565b34801561030957600080fd5b5061031d6103183660046114d4565b6110a0565b60405161013f94939291906114ed565b600254349060ff16156103785760405162461bcd60e51b815260206004820152600e60248201526d18d85b5c185a59db88115b99195960921b60448201526064015b60405180910390fd5b600081116103bd5760405162461bcd60e51b8152602060048201526012602482015271596f7520646964206e6f7420646f6e61746560701b604482015260640161036f565b60085460030361040f5760405162461bcd60e51b815260206004820152601960248201527f6e6f206c6f6e6765722074616b696e6720646f6e6174696f6e00000000000000604482015260640161036f565b336000908152600a6020526040812054900361043e57600160056000828254610438919061153c565b90915550505b336000908152600a60205260408120805483929061045d90849061153c565b925050819055508060046000828254610476919061153c565b90915550506040805182815242602082015233917fd29f399086278dee53663dd4e0301a10b961dca23fe84dd7da6d09519a3fa63f910160405180910390a250565b6104c06111cf565b60075463ffffffff166000908152600b602052604090819020815160a081019092528054829082906104f190611555565b80601f016020809104026020016040519081016040528092919081815260200182805461051d90611555565b801561056a5780601f1061053f5761010080835404028352916020019161056a565b820191906000526020600020905b81548152906001019060200180831161054d57829003601f168201915b5050509183525050600182015460ff9081161515602083015260028084015460408401526003840154606090930192909116908111156105ac576105ac611257565b60028111156105bd576105bd611257565b815260200160048201805480602002602001604051908101604052809291908181526020016000905b8282101561063157600084815260209081902060408051808201909152908401546001600160a01b0381168252600160a01b900460ff161515818301528252600190920191016105e6565b5050505081525050905090565b6001805461064b90611555565b80601f016020809104026020016040519081016040528092919081815260200182805461067790611555565b80156106c45780601f10610699576101008083540402835291602001916106c4565b820191906000526020600020905b8154815290600101906020018083116106a757829003601f168201915b505050505081565b6009546001600160a01b0316331461071e5760405162461bcd60e51b81526020600482015260156024820152743cb7ba9030b932903737ba103a34329037bbb732b960591b604482015260640161036f565b600260075463ffffffff166000908152600b602052604090206003015460ff16600281111561074f5761074f611257565b0361079c5760405162461bcd60e51b815260206004820152601c60248201527f596f75206861766520612070656e64696e67206d696c6573746f6e6500000000604482015260640161036f565b6008546003036107ee5760405162461bcd60e51b815260206004820152601c60248201527f6e6f206d6f7265206d696c6573746f6e657320746f2063726561746500000000604482015260640161036f565b6007805463ffffffff169060006108048361158f565b82546101009290920a63ffffffff818102199093169183160217909155600754166000908152600b602052604090209050806108408482611601565b5060018101805460ff199081169091556002808301849055600383018054909216179055604080514281526020810184905233917f369b968b1b19cd17fac61667f3b2c51629d76d608ab6028eae885b6d667a5d19910160405180910390a2505050565b600054610100900460ff16158080156108c45750600054600160ff909116105b806108de5750303b1580156108de575060005460ff166001145b6109415760405162461bcd60e51b815260206004820152602e60248201527f496e697469616c697a61626c653a20636f6e747261637420697320616c72656160448201526d191e481a5b9a5d1a585b1a5e995960921b606482015260840161036f565b6000805460ff191660011790558015610964576000805461ff0019166101001790555b600980546001600160a01b0319163217905560016109828582611601565b506003839055600682905580156109d3576000805461ff0019169055604051600181527f7f26b83ff96e1f2b6a682f133852f6798a09c465da95921460cefb38474024989060200160405180910390a15b50505050565b6060600180546109e890611555565b80601f0160208091040260200160405190810160405280929190818152602001828054610a1490611555565b8015610a615780601f10610a3657610100808354040283529160200191610a61565b820191906000526020600020905b815481529060010190602001808311610a4457829003601f168201915b5050505050905090565b600260075463ffffffff166000908152600b602052604090206003015460ff166002811115610a9c57610a9c611257565b14610ae95760405162461bcd60e51b815260206004820152601960248201527f63616e206e6f7420766f7465206f6e206d696c6573746f6e6500000000000000604482015260640161036f565b336000908152600a60205260408120549003610b3d5760405162461bcd60e51b81526020600482015260136024820152723cb7ba9030b932903737ba1030903237b737b960691b604482015260640161036f565b60075463ffffffff166000908152600b6020526040812060040154815b81831015610beb5760075463ffffffff166000908152600b60205260408120600401805485908110610b8e57610b8e6116c1565b6000918252602091829020604080518082019091529101546001600160a01b038116808352600160a01b90910460ff161515928201929092529150339003610bda576001915050610beb565b50610be4836116d7565b9250610b5a565b806109d3575050604080518082018252338152921515602080850191825260075463ffffffff166000908152600b825292832060040180546001810182559084529220935193909101805491511515600160a01b026001600160a81b03199092166001600160a01b03909416939093171790915550565b6009546001600160a01b03163314610cb05760405162461bcd60e51b81526020600482015260116024820152703cb7ba903737ba103a34329037bbb732b960791b604482015260640161036f565b60075463ffffffff166000908152600b60205260409020600201544211610d0b5760405162461bcd60e51b815260206004820152600f60248201526e3b37ba34b7339039ba34b6361037b760891b604482015260640161036f565b600260075463ffffffff166000908152600b602052604090206003015460ff166002811115610d3c57610d3c611257565b14610d7b5760405162461bcd60e51b815260206004820152600f60248201526e1b5a5b195cdd1bdb9948195b991959608a1b604482015260640161036f565b60075463ffffffff166000908152600b6020908152604080832060040180548251818502810185019093528083528493610e0b93929190859084015b82821015610e0257600084815260209081902060408051808201909152908401546001600160a01b0381168252600160a01b900460ff16151581830152825260019092019101610db7565b50505050611157565b91509150600081600554610e1f91906116f0565b905060006003670de0b6b3a76400006005546002610e3d9190611703565b610e479190611703565b610e51919061171a565b90506000610e67670de0b6b3a764000084611703565b90508181106110395760075463ffffffff166000908152600b602052604081206001908101805460ff191690911790556008805491610ea5836116d7565b909155505060075463ffffffff166000908152600b60205260409020600301805460ff191690554780610f105760405162461bcd60e51b81526020600482015260136024820152726e6f7468696e6720746f20776974686472617760681b604482015260640161036f565b6000600854600103610f2e57610f2760038361171a565b9050610f53565b600854600203610f4357610f2760028361171a565b506002805460ff19166001179055805b6009546040516000916001600160a01b03169083908381818185875af1925050503d8060008114610fa0576040519150601f19603f3d011682016040523d82523d6000602084013e610fa5565b606091505b5050905080610fea5760405162461bcd60e51b81526020600482015260116024820152701dda5d1a191c985dd85b0819985a5b1959607a1b604482015260640161036f565b600954604080518481524260208201526001600160a01b03909216917f8ed9ba5fd9426895c74647bedd96d162e9c409e3dadd567aeba6afe82e18e826910160405180910390a2505050611099565b60075463ffffffff166000908152600b6020908152604091829020600301805460ff1916600117905581518781529081018690527fe9aea105de24662e3f5c0bb5db4fff641066a5b5f74ea0e1c236b1a249a187d6910160405180910390a15b5050505050565b600b602052600090815260409020805481906110bb90611555565b80601f01602080910402602001604051908101604052809291908181526020018280546110e790611555565b80156111345780601f1061110957610100808354040283529160200191611134565b820191906000526020600020905b81548152906001019060200180831161111757829003601f168201915b5050505060018301546002840154600390940154929360ff918216939092501684565b60008060008060008551905060005b818110156111c357868181518110611180576111806116c1565b602002602001015160200151151560011515036111a7576111a0846116d7565b93506111b3565b6111b0836116d7565b92505b6111bc816116d7565b9050611166565b50919590945092505050565b6040518060a0016040528060608152602001600015158152602001600081526020016000600281111561120457611204611257565b8152602001606081525090565b6000815180845260005b818110156112375760208185018101518683018201520161121b565b506000602082860101526020601f19601f83011685010191505092915050565b634e487b7160e01b600052602160045260246000fd5b6003811061128b57634e487b7160e01b600052602160045260246000fd5b9052565b60006020808352835160a0828501526112ab60c0850182611211565b905081850151604081151581870152808701516060870152606087015191506112d7608087018361126d565b6080870151868403601f190160a0880152805180855290850193600093508501905b8084101561132d57845180516001600160a01b031683528601511515868301529385019360019390930192908201906112f9565b50979650505050505050565b60208152600061134c6020830184611211565b9392505050565b634e487b7160e01b600052604160045260246000fd5b600082601f83011261137a57600080fd5b813567ffffffffffffffff8082111561139557611395611353565b604051601f8301601f19908116603f011681019082821181831017156113bd576113bd611353565b816040528381528660208588010111156113d657600080fd5b836020870160208301376000602085830101528094505050505092915050565b6000806040838503121561140957600080fd5b823567ffffffffffffffff81111561142057600080fd5b61142c85828601611369565b95602094909401359450505050565b60008060006060848603121561145057600080fd5b833567ffffffffffffffff81111561146757600080fd5b61147386828701611369565b9660208601359650604090950135949350505050565b60006020828403121561149b57600080fd5b8135801515811461134c57600080fd5b6000602082840312156114bd57600080fd5b81356001600160a01b038116811461134c57600080fd5b6000602082840312156114e657600080fd5b5035919050565b6080815260006115006080830187611211565b9050841515602083015283604083015261151d606083018461126d565b95945050505050565b634e487b7160e01b600052601160045260246000fd5b8082018082111561154f5761154f611526565b92915050565b600181811c9082168061156957607f821691505b60208210810361158957634e487b7160e01b600052602260045260246000fd5b50919050565b600063ffffffff8083168181036115a8576115a8611526565b6001019392505050565b601f8211156115fc57600081815260208120601f850160051c810160208610156115d95750805b601f850160051c820191505b818110156115f8578281556001016115e5565b5050505b505050565b815167ffffffffffffffff81111561161b5761161b611353565b61162f816116298454611555565b846115b2565b602080601f831160018114611664576000841561164c5750858301515b600019600386901b1c1916600185901b1785556115f8565b600085815260208120601f198616915b8281101561169357888601518255948401946001909101908401611674565b50858210156116b15787850151600019600388901b60f8161c191681555b5050505050600190811b01905550565b634e487b7160e01b600052603260045260246000fd5b6000600182016116e9576116e9611526565b5060010190565b8181038181111561154f5761154f611526565b808202811582820484141761154f5761154f611526565b60008261173757634e487b7160e01b600052601260045260246000fd5b50049056fea264697066735822122014c1ceeea34eace50606235d670ee8065027856d8b6892de751dfb6df141482564736f6c63430008110033","opcodes":"PUSH1 0x80 PUSH1 0x40 MSTORE CALLVALUE DUP1 ISZERO PUSH2 0x10 JUMPI PUSH1 0x0 DUP1 REVERT JUMPDEST POP PUSH2 0x1772 DUP1 PUSH2 0x20 PUSH1 0x0 CODECOPY PUSH1 0x0 RETURN INVALID PUSH1 0x80 PUSH1 0x40 MSTORE PUSH1 0x4 CALLDATASIZE LT PUSH2 0x10D JUMPI PUSH1 0x0 CALLDATALOAD PUSH1 0xE0 SHR DUP1 PUSH4 0x977D08C0 GT PUSH2 0x95 JUMPI DUP1 PUSH4 0xBA536193 GT PUSH2 0x64 JUMPI DUP1 PUSH4 0xBA536193 EQ PUSH2 0x285 JUMPI DUP1 PUSH4 0xBF2928A6 EQ PUSH2 0x2A5 JUMPI DUP1 PUSH4 0xC398D56D EQ PUSH2 0x2BA JUMPI DUP1 PUSH4 0xCA0CDEA8 EQ PUSH2 0x2D0 JUMPI DUP1 PUSH4 0xE89E4ED6 EQ PUSH2 0x2FD JUMPI PUSH1 0x0 DUP1 REVERT JUMPDEST DUP1 PUSH4 0x977D08C0 EQ PUSH2 0x215 JUMPI DUP1 PUSH4 0x9CC4E858 EQ PUSH2 0x235 JUMPI DUP1 PUSH4 0xAD66E52A EQ PUSH2 0x24A JUMPI DUP1 PUSH4 0xB17FAC22 EQ PUSH2 0x25D JUMPI PUSH1 0x0 DUP1 REVERT JUMPDEST DUP1 PUSH4 0x64B2E2D9 GT PUSH2 0xDC JUMPI DUP1 PUSH4 0x64B2E2D9 EQ PUSH2 0x193 JUMPI DUP1 PUSH4 0x84C67B76 EQ PUSH2 0x1A8 JUMPI DUP1 PUSH4 0x8E692464 EQ PUSH2 0x1CA JUMPI DUP1 PUSH4 0x91AC4B88 EQ PUSH2 0x1EA JUMPI DUP1 PUSH4 0x953B8FB8 EQ PUSH2 0x1FF JUMPI PUSH1 0x0 DUP1 REVERT JUMPDEST DUP1 PUSH4 0x3BC47FBE EQ PUSH2 0x119 JUMPI DUP1 PUSH4 0x40EA0A94 EQ PUSH2 0x148 JUMPI DUP1 PUSH4 0x4BEFDAEA EQ PUSH2 0x152 JUMPI DUP1 PUSH4 0x5F62D747 EQ PUSH2 0x171 JUMPI PUSH1 0x0 DUP1 REVERT JUMPDEST CALLDATASIZE PUSH2 0x114 JUMPI STOP JUMPDEST PUSH1 0x0 DUP1 REVERT JUMPDEST CALLVALUE DUP1 ISZERO PUSH2 0x125 JUMPI PUSH1 0x0 DUP1 REVERT JUMPDEST POP PUSH1 0x2 SLOAD PUSH2 0x133 SWAP1 PUSH1 0xFF AND DUP2 JUMP JUMPDEST PUSH1 0x40 MLOAD SWAP1 ISZERO ISZERO DUP2 MSTORE PUSH1 0x20 ADD JUMPDEST PUSH1 0x40 MLOAD DUP1 SWAP2 SUB SWAP1 RETURN JUMPDEST PUSH2 0x150 PUSH2 0x32D JUMP JUMPDEST STOP JUMPDEST CALLVALUE DUP1 ISZERO PUSH2 0x15E JUMPI PUSH1 0x0 DUP1 REVERT JUMPDEST POP PUSH1 0x4 SLOAD JUMPDEST PUSH1 0x40 MLOAD SWAP1 DUP2 MSTORE PUSH1 0x20 ADD PUSH2 0x13F JUMP JUMPDEST CALLVALUE DUP1 ISZERO PUSH2 0x17D JUMPI PUSH1 0x0 DUP1 REVERT JUMPDEST POP PUSH2 0x186 PUSH2 0x4B8 JUMP JUMPDEST PUSH1 0x40 MLOAD PUSH2 0x13F SWAP2 SWAP1 PUSH2 0x128F JUMP JUMPDEST CALLVALUE DUP1 ISZERO PUSH2 0x19F JUMPI PUSH1 0x0 DUP1 REVERT JUMPDEST POP PUSH1 0x5 SLOAD PUSH2 0x163 JUMP JUMPDEST CALLVALUE DUP1 ISZERO PUSH2 0x1B4 JUMPI PUSH1 0x0 DUP1 REVERT JUMPDEST POP PUSH2 0x1BD PUSH2 0x63E JUMP JUMPDEST PUSH1 0x40 MLOAD PUSH2 0x13F SWAP2 SWAP1 PUSH2 0x1339 JUMP JUMPDEST CALLVALUE DUP1 ISZERO PUSH2 0x1D6 JUMPI PUSH1 0x0 DUP1 REVERT JUMPDEST POP PUSH2 0x150 PUSH2 0x1E5 CALLDATASIZE PUSH1 0x4 PUSH2 0x13F6 JUMP JUMPDEST PUSH2 0x6CC JUMP JUMPDEST CALLVALUE DUP1 ISZERO PUSH2 0x1F6 JUMPI PUSH1 0x0 DUP1 REVERT JUMPDEST POP PUSH1 0x3 SLOAD PUSH2 0x163 JUMP JUMPDEST CALLVALUE DUP1 ISZERO PUSH2 0x20B JUMPI PUSH1 0x0 DUP1 REVERT JUMPDEST POP PUSH2 0x163 PUSH1 0x3 SLOAD DUP2 JUMP JUMPDEST CALLVALUE DUP1 ISZERO PUSH2 0x221 JUMPI PUSH1 0x0 DUP1 REVERT JUMPDEST POP PUSH2 0x150 PUSH2 0x230 CALLDATASIZE PUSH1 0x4 PUSH2 0x143B JUMP JUMPDEST PUSH2 0x8A4 JUMP JUMPDEST CALLVALUE DUP1 ISZERO PUSH2 0x241 JUMPI PUSH1 0x0 DUP1 REVERT JUMPDEST POP PUSH2 0x1BD PUSH2 0x9D9 JUMP JUMPDEST CALLVALUE DUP1 ISZERO PUSH2 0x256 JUMPI PUSH1 0x0 DUP1 REVERT JUMPDEST POP SELFBALANCE PUSH2 0x163 JUMP JUMPDEST CALLVALUE DUP1 ISZERO PUSH2 0x269 JUMPI PUSH1 0x0 DUP1 REVERT JUMPDEST POP PUSH1 0x9 SLOAD PUSH1 0x40 MLOAD PUSH1 0x1 PUSH1 0x1 PUSH1 0xA0 SHL SUB SWAP1 SWAP2 AND DUP2 MSTORE PUSH1 0x20 ADD PUSH2 0x13F JUMP JUMPDEST CALLVALUE DUP1 ISZERO PUSH2 0x291 JUMPI PUSH1 0x0 DUP1 REVERT JUMPDEST POP PUSH2 0x150 PUSH2 0x2A0 CALLDATASIZE PUSH1 0x4 PUSH2 0x1489 JUMP JUMPDEST PUSH2 0xA6B JUMP JUMPDEST CALLVALUE DUP1 ISZERO PUSH2 0x2B1 JUMPI PUSH1 0x0 DUP1 REVERT JUMPDEST POP PUSH2 0x150 PUSH2 0xC62 JUMP JUMPDEST CALLVALUE DUP1 ISZERO PUSH2 0x2C6 JUMPI PUSH1 0x0 DUP1 REVERT JUMPDEST POP PUSH2 0x163 PUSH1 0x6 SLOAD DUP2 JUMP JUMPDEST CALLVALUE DUP1 ISZERO PUSH2 0x2DC JUMPI PUSH1 0x0 DUP1 REVERT JUMPDEST POP PUSH2 0x163 PUSH2 0x2EB CALLDATASIZE PUSH1 0x4 PUSH2 0x14AB JUMP JUMPDEST PUSH1 0xA PUSH1 0x20 MSTORE PUSH1 0x0 SWAP1 DUP2 MSTORE PUSH1 0x40 SWAP1 KECCAK256 SLOAD DUP2 JUMP JUMPDEST CALLVALUE DUP1 ISZERO PUSH2 0x309 JUMPI PUSH1 0x0 DUP1 REVERT JUMPDEST POP PUSH2 0x31D PUSH2 0x318 CALLDATASIZE PUSH1 0x4 PUSH2 0x14D4 JUMP JUMPDEST PUSH2 0x10A0 JUMP JUMPDEST PUSH1 0x40 MLOAD PUSH2 0x13F SWAP5 SWAP4 SWAP3 SWAP2 SWAP1 PUSH2 0x14ED JUMP JUMPDEST PUSH1 0x2 SLOAD CALLVALUE SWAP1 PUSH1 0xFF AND ISZERO PUSH2 0x378 JUMPI PUSH1 0x40 MLOAD PUSH3 0x461BCD PUSH1 0xE5 SHL DUP2 MSTORE PUSH1 0x20 PUSH1 0x4 DUP3 ADD MSTORE PUSH1 0xE PUSH1 0x24 DUP3 ADD MSTORE PUSH14 0x18D85B5C185A59DB88115B991959 PUSH1 0x92 SHL PUSH1 0x44 DUP3 ADD MSTORE PUSH1 0x64 ADD JUMPDEST PUSH1 0x40 MLOAD DUP1 SWAP2 SUB SWAP1 REVERT JUMPDEST PUSH1 0x0 DUP2 GT PUSH2 0x3BD JUMPI PUSH1 0x40 MLOAD PUSH3 0x461BCD PUSH1 0xE5 SHL DUP2 MSTORE PUSH1 0x20 PUSH1 0x4 DUP3 ADD MSTORE PUSH1 0x12 PUSH1 0x24 DUP3 ADD MSTORE PUSH18 0x596F7520646964206E6F7420646F6E617465 PUSH1 0x70 SHL PUSH1 0x44 DUP3 ADD MSTORE PUSH1 0x64 ADD PUSH2 0x36F JUMP JUMPDEST PUSH1 0x8 SLOAD PUSH1 0x3 SUB PUSH2 0x40F JUMPI PUSH1 0x40 MLOAD PUSH3 0x461BCD PUSH1 0xE5 SHL DUP2 MSTORE PUSH1 0x20 PUSH1 0x4 DUP3 ADD MSTORE PUSH1 0x19 PUSH1 0x24 DUP3 ADD MSTORE PUSH32 0x6E6F206C6F6E6765722074616B696E6720646F6E6174696F6E00000000000000 PUSH1 0x44 DUP3 ADD MSTORE PUSH1 0x64 ADD PUSH2 0x36F JUMP JUMPDEST CALLER PUSH1 0x0 SWAP1 DUP2 MSTORE PUSH1 0xA PUSH1 0x20 MSTORE PUSH1 0x40 DUP2 KECCAK256 SLOAD SWAP1 SUB PUSH2 0x43E JUMPI PUSH1 0x1 PUSH1 0x5 PUSH1 0x0 DUP3 DUP3 SLOAD PUSH2 0x438 SWAP2 SWAP1 PUSH2 0x153C JUMP JUMPDEST SWAP1 SWAP2 SSTORE POP POP JUMPDEST CALLER PUSH1 0x0 SWAP1 DUP2 MSTORE PUSH1 0xA PUSH1 0x20 MSTORE PUSH1 0x40 DUP2 KECCAK256 DUP1 SLOAD DUP4 SWAP3 SWAP1 PUSH2 0x45D SWAP1 DUP5 SWAP1 PUSH2 0x153C JUMP JUMPDEST SWAP3 POP POP DUP2 SWAP1 SSTORE POP DUP1 PUSH1 0x4 PUSH1 0x0 DUP3 DUP3 SLOAD PUSH2 0x476 SWAP2 SWAP1 PUSH2 0x153C JUMP JUMPDEST SWAP1 SWAP2 SSTORE POP POP PUSH1 0x40 DUP1 MLOAD DUP3 DUP2 MSTORE TIMESTAMP PUSH1 0x20 DUP3 ADD MSTORE CALLER SWAP2 PUSH32 0xD29F399086278DEE53663DD4E0301A10B961DCA23FE84DD7DA6D09519A3FA63F SWAP2 ADD PUSH1 0x40 MLOAD DUP1 SWAP2 SUB SWAP1 LOG2 POP JUMP JUMPDEST PUSH2 0x4C0 PUSH2 0x11CF JUMP JUMPDEST PUSH1 0x7 SLOAD PUSH4 0xFFFFFFFF AND PUSH1 0x0 SWAP1 DUP2 MSTORE PUSH1 0xB PUSH1 0x20 MSTORE PUSH1 0x40 SWAP1 DUP2 SWAP1 KECCAK256 DUP2 MLOAD PUSH1 0xA0 DUP2 ADD SWAP1 SWAP3 MSTORE DUP1 SLOAD DUP3 SWAP1 DUP3 SWAP1 PUSH2 0x4F1 SWAP1 PUSH2 0x1555 JUMP JUMPDEST DUP1 PUSH1 0x1F ADD PUSH1 0x20 DUP1 SWAP2 DIV MUL PUSH1 0x20 ADD PUSH1 0x40 MLOAD SWAP1 DUP2 ADD PUSH1 0x40 MSTORE DUP1 SWAP3 SWAP2 SWAP1 DUP2 DUP2 MSTORE PUSH1 0x20 ADD DUP3 DUP1 SLOAD PUSH2 0x51D SWAP1 PUSH2 0x1555 JUMP JUMPDEST DUP1 ISZERO PUSH2 0x56A JUMPI DUP1 PUSH1 0x1F LT PUSH2 0x53F JUMPI PUSH2 0x100 DUP1 DUP4 SLOAD DIV MUL DUP4 MSTORE SWAP2 PUSH1 0x20 ADD SWAP2 PUSH2 0x56A JUMP JUMPDEST DUP3 ADD SWAP2 SWAP1 PUSH1 0x0 MSTORE PUSH1 0x20 PUSH1 0x0 KECCAK256 SWAP1 JUMPDEST DUP2 SLOAD DUP2 MSTORE SWAP1 PUSH1 0x1 ADD SWAP1 PUSH1 0x20 ADD DUP1 DUP4 GT PUSH2 0x54D JUMPI DUP3 SWAP1 SUB PUSH1 0x1F AND DUP3 ADD SWAP2 JUMPDEST POP POP POP SWAP2 DUP4 MSTORE POP POP PUSH1 0x1 DUP3 ADD SLOAD PUSH1 0xFF SWAP1 DUP2 AND ISZERO ISZERO PUSH1 0x20 DUP4 ADD MSTORE PUSH1 0x2 DUP1 DUP5 ADD SLOAD PUSH1 0x40 DUP5 ADD MSTORE PUSH1 0x3 DUP5 ADD SLOAD PUSH1 0x60 SWAP1 SWAP4 ADD SWAP3 SWAP1 SWAP2 AND SWAP1 DUP2 GT ISZERO PUSH2 0x5AC JUMPI PUSH2 0x5AC PUSH2 0x1257 JUMP JUMPDEST PUSH1 0x2 DUP2 GT ISZERO PUSH2 0x5BD JUMPI PUSH2 0x5BD PUSH2 0x1257 JUMP JUMPDEST DUP2 MSTORE PUSH1 0x20 ADD PUSH1 0x4 DUP3 ADD DUP1 SLOAD DUP1 PUSH1 0x20 MUL PUSH1 0x20 ADD PUSH1 0x40 MLOAD SWAP1 DUP2 ADD PUSH1 0x40 MSTORE DUP1 SWAP3 SWAP2 SWAP1 DUP2 DUP2 MSTORE PUSH1 0x20 ADD PUSH1 0x0 SWAP1 JUMPDEST DUP3 DUP3 LT ISZERO PUSH2 0x631 JUMPI PUSH1 0x0 DUP5 DUP2 MSTORE PUSH1 0x20 SWAP1 DUP2 SWAP1 KECCAK256 PUSH1 0x40 DUP1 MLOAD DUP1 DUP3 ADD SWAP1 SWAP2 MSTORE SWAP1 DUP5 ADD SLOAD PUSH1 0x1 PUSH1 0x1 PUSH1 0xA0 SHL SUB DUP2 AND DUP3 MSTORE PUSH1 0x1 PUSH1 0xA0 SHL SWAP1 DIV PUSH1 0xFF AND ISZERO ISZERO DUP2 DUP4 ADD MSTORE DUP3 MSTORE PUSH1 0x1 SWAP1 SWAP3 ADD SWAP2 ADD PUSH2 0x5E6 JUMP JUMPDEST POP POP POP POP DUP2 MSTORE POP POP SWAP1 POP SWAP1 JUMP JUMPDEST PUSH1 0x1 DUP1 SLOAD PUSH2 0x64B SWAP1 PUSH2 0x1555 JUMP JUMPDEST DUP1 PUSH1 0x1F ADD PUSH1 0x20 DUP1 SWAP2 DIV MUL PUSH1 0x20 ADD PUSH1 0x40 MLOAD SWAP1 DUP2 ADD PUSH1 0x40 MSTORE DUP1 SWAP3 SWAP2 SWAP1 DUP2 DUP2 MSTORE PUSH1 0x20 ADD DUP3 DUP1 SLOAD PUSH2 0x677 SWAP1 PUSH2 0x1555 JUMP JUMPDEST DUP1 ISZERO PUSH2 0x6C4 JUMPI DUP1 PUSH1 0x1F LT PUSH2 0x699 JUMPI PUSH2 0x100 DUP1 DUP4 SLOAD DIV MUL DUP4 MSTORE SWAP2 PUSH1 0x20 ADD SWAP2 PUSH2 0x6C4 JUMP JUMPDEST DUP3 ADD SWAP2 SWAP1 PUSH1 0x0 MSTORE PUSH1 0x20 PUSH1 0x0 KECCAK256 SWAP1 JUMPDEST DUP2 SLOAD DUP2 MSTORE SWAP1 PUSH1 0x1 ADD SWAP1 PUSH1 0x20 ADD DUP1 DUP4 GT PUSH2 0x6A7 JUMPI DUP3 SWAP1 SUB PUSH1 0x1F AND DUP3 ADD SWAP2 JUMPDEST POP POP POP POP POP DUP2 JUMP JUMPDEST PUSH1 0x9 SLOAD PUSH1 0x1 PUSH1 0x1 PUSH1 0xA0 SHL SUB AND CALLER EQ PUSH2 0x71E JUMPI PUSH1 0x40 MLOAD PUSH3 0x461BCD PUSH1 0xE5 SHL DUP2 MSTORE PUSH1 0x20 PUSH1 0x4 DUP3 ADD MSTORE PUSH1 0x15 PUSH1 0x24 DUP3 ADD MSTORE PUSH21 0x3CB7BA9030B932903737BA103A34329037BBB732B9 PUSH1 0x59 SHL PUSH1 0x44 DUP3 ADD MSTORE PUSH1 0x64 ADD PUSH2 0x36F JUMP JUMPDEST PUSH1 0x2 PUSH1 0x7 SLOAD PUSH4 0xFFFFFFFF AND PUSH1 0x0 SWAP1 DUP2 MSTORE PUSH1 0xB PUSH1 0x20 MSTORE PUSH1 0x40 SWAP1 KECCAK256 PUSH1 0x3 ADD SLOAD PUSH1 0xFF AND PUSH1 0x2 DUP2 GT ISZERO PUSH2 0x74F JUMPI PUSH2 0x74F PUSH2 0x1257 JUMP JUMPDEST SUB PUSH2 0x79C JUMPI PUSH1 0x40 MLOAD PUSH3 0x461BCD PUSH1 0xE5 SHL DUP2 MSTORE PUSH1 0x20 PUSH1 0x4 DUP3 ADD MSTORE PUSH1 0x1C PUSH1 0x24 DUP3 ADD MSTORE PUSH32 0x596F75206861766520612070656E64696E67206D696C6573746F6E6500000000 PUSH1 0x44 DUP3 ADD MSTORE PUSH1 0x64 ADD PUSH2 0x36F JUMP JUMPDEST PUSH1 0x8 SLOAD PUSH1 0x3 SUB PUSH2 0x7EE JUMPI PUSH1 0x40 MLOAD PUSH3 0x461BCD PUSH1 0xE5 SHL DUP2 MSTORE PUSH1 0x20 PUSH1 0x4 DUP3 ADD MSTORE PUSH1 0x1C PUSH1 0x24 DUP3 ADD MSTORE PUSH32 0x6E6F206D6F7265206D696C6573746F6E657320746F2063726561746500000000 PUSH1 0x44 DUP3 ADD MSTORE PUSH1 0x64 ADD PUSH2 0x36F JUMP JUMPDEST PUSH1 0x7 DUP1 SLOAD PUSH4 0xFFFFFFFF AND SWAP1 PUSH1 0x0 PUSH2 0x804 DUP4 PUSH2 0x158F JUMP JUMPDEST DUP3 SLOAD PUSH2 0x100 SWAP3 SWAP1 SWAP3 EXP PUSH4 0xFFFFFFFF DUP2 DUP2 MUL NOT SWAP1 SWAP4 AND SWAP2 DUP4 AND MUL OR SWAP1 SWAP2 SSTORE PUSH1 0x7 SLOAD AND PUSH1 0x0 SWAP1 DUP2 MSTORE PUSH1 0xB PUSH1 0x20 MSTORE PUSH1 0x40 SWAP1 KECCAK256 SWAP1 POP DUP1 PUSH2 0x840 DUP5 DUP3 PUSH2 0x1601 JUMP JUMPDEST POP PUSH1 0x1 DUP2 ADD DUP1 SLOAD PUSH1 0xFF NOT SWAP1 DUP2 AND SWAP1 SWAP2 SSTORE PUSH1 0x2 DUP1 DUP4 ADD DUP5 SWAP1 SSTORE PUSH1 0x3 DUP4 ADD DUP1 SLOAD SWAP1 SWAP3 AND OR SWAP1 SSTORE PUSH1 0x40 DUP1 MLOAD TIMESTAMP DUP2 MSTORE PUSH1 0x20 DUP2 ADD DUP5 SWAP1 MSTORE CALLER SWAP2 PUSH32 0x369B968B1B19CD17FAC61667F3B2C51629D76D608AB6028EAE885B6D667A5D19 SWAP2 ADD PUSH1 0x40 MLOAD DUP1 SWAP2 SUB SWAP1 LOG2 POP POP POP JUMP JUMPDEST PUSH1 0x0 SLOAD PUSH2 0x100 SWAP1 DIV PUSH1 0xFF AND ISZERO DUP1 DUP1 ISZERO PUSH2 0x8C4 JUMPI POP PUSH1 0x0 SLOAD PUSH1 0x1 PUSH1 0xFF SWAP1 SWAP2 AND LT JUMPDEST DUP1 PUSH2 0x8DE JUMPI POP ADDRESS EXTCODESIZE ISZERO DUP1 ISZERO PUSH2 0x8DE JUMPI POP PUSH1 0x0 SLOAD PUSH1 0xFF AND PUSH1 0x1 EQ JUMPDEST PUSH2 0x941 JUMPI PUSH1 0x40 MLOAD PUSH3 0x461BCD PUSH1 0xE5 SHL DUP2 MSTORE PUSH1 0x20 PUSH1 0x4 DUP3 ADD MSTORE PUSH1 0x2E PUSH1 0x24 DUP3 ADD MSTORE PUSH32 0x496E697469616C697A61626C653A20636F6E747261637420697320616C726561 PUSH1 0x44 DUP3 ADD MSTORE PUSH14 0x191E481A5B9A5D1A585B1A5E9959 PUSH1 0x92 SHL PUSH1 0x64 DUP3 ADD MSTORE PUSH1 0x84 ADD PUSH2 0x36F JUMP JUMPDEST PUSH1 0x0 DUP1 SLOAD PUSH1 0xFF NOT AND PUSH1 0x1 OR SWAP1 SSTORE DUP1 ISZERO PUSH2 0x964 JUMPI PUSH1 0x0 DUP1 SLOAD PUSH2 0xFF00 NOT AND PUSH2 0x100 OR SWAP1 SSTORE JUMPDEST PUSH1 0x9 DUP1 SLOAD PUSH1 0x1 PUSH1 0x1 PUSH1 0xA0 SHL SUB NOT AND ORIGIN OR SWAP1 SSTORE PUSH1 0x1 PUSH2 0x982 DUP6 DUP3 PUSH2 0x1601 JUMP JUMPDEST POP PUSH1 0x3 DUP4 SWAP1 SSTORE PUSH1 0x6 DUP3 SWAP1 SSTORE DUP1 ISZERO PUSH2 0x9D3 JUMPI PUSH1 0x0 DUP1 SLOAD PUSH2 0xFF00 NOT AND SWAP1 SSTORE PUSH1 0x40 MLOAD PUSH1 0x1 DUP2 MSTORE PUSH32 0x7F26B83FF96E1F2B6A682F133852F6798A09C465DA95921460CEFB3847402498 SWAP1 PUSH1 0x20 ADD PUSH1 0x40 MLOAD DUP1 SWAP2 SUB SWAP1 LOG1 JUMPDEST POP POP POP POP JUMP JUMPDEST PUSH1 0x60 PUSH1 0x1 DUP1 SLOAD PUSH2 0x9E8 SWAP1 PUSH2 0x1555 JUMP JUMPDEST DUP1 PUSH1 0x1F ADD PUSH1 0x20 DUP1 SWAP2 DIV MUL PUSH1 0x20 ADD PUSH1 0x40 MLOAD SWAP1 DUP2 ADD PUSH1 0x40 MSTORE DUP1 SWAP3 SWAP2 SWAP1 DUP2 DUP2 MSTORE PUSH1 0x20 ADD DUP3 DUP1 SLOAD PUSH2 0xA14 SWAP1 PUSH2 0x1555 JUMP JUMPDEST DUP1 ISZERO PUSH2 0xA61 JUMPI DUP1 PUSH1 0x1F LT PUSH2 0xA36 JUMPI PUSH2 0x100 DUP1 DUP4 SLOAD DIV MUL DUP4 MSTORE SWAP2 PUSH1 0x20 ADD SWAP2 PUSH2 0xA61 JUMP JUMPDEST DUP3 ADD SWAP2 SWAP1 PUSH1 0x0 MSTORE PUSH1 0x20 PUSH1 0x0 KECCAK256 SWAP1 JUMPDEST DUP2 SLOAD DUP2 MSTORE SWAP1 PUSH1 0x1 ADD SWAP1 PUSH1 0x20 ADD DUP1 DUP4 GT PUSH2 0xA44 JUMPI DUP3 SWAP1 SUB PUSH1 0x1F AND DUP3 ADD SWAP2 JUMPDEST POP POP POP POP POP SWAP1 POP SWAP1 JUMP JUMPDEST PUSH1 0x2 PUSH1 0x7 SLOAD PUSH4 0xFFFFFFFF AND PUSH1 0x0 SWAP1 DUP2 MSTORE PUSH1 0xB PUSH1 0x20 MSTORE PUSH1 0x40 SWAP1 KECCAK256 PUSH1 0x3 ADD SLOAD PUSH1 0xFF AND PUSH1 0x2 DUP2 GT ISZERO PUSH2 0xA9C JUMPI PUSH2 0xA9C PUSH2 0x1257 JUMP JUMPDEST EQ PUSH2 0xAE9 JUMPI PUSH1 0x40 MLOAD PUSH3 0x461BCD PUSH1 0xE5 SHL DUP2 MSTORE PUSH1 0x20 PUSH1 0x4 DUP3 ADD MSTORE PUSH1 0x19 PUSH1 0x24 DUP3 ADD MSTORE PUSH32 0x63616E206E6F7420766F7465206F6E206D696C6573746F6E6500000000000000 PUSH1 0x44 DUP3 ADD MSTORE PUSH1 0x64 ADD PUSH2 0x36F JUMP JUMPDEST CALLER PUSH1 0x0 SWAP1 DUP2 MSTORE PUSH1 0xA PUSH1 0x20 MSTORE PUSH1 0x40 DUP2 KECCAK256 SLOAD SWAP1 SUB PUSH2 0xB3D JUMPI PUSH1 0x40 MLOAD PUSH3 0x461BCD PUSH1 0xE5 SHL DUP2 MSTORE PUSH1 0x20 PUSH1 0x4 DUP3 ADD MSTORE PUSH1 0x13 PUSH1 0x24 DUP3 ADD MSTORE PUSH19 0x3CB7BA9030B932903737BA1030903237B737B9 PUSH1 0x69 SHL PUSH1 0x44 DUP3 ADD MSTORE PUSH1 0x64 ADD PUSH2 0x36F JUMP JUMPDEST PUSH1 0x7 SLOAD PUSH4 0xFFFFFFFF AND PUSH1 0x0 SWAP1 DUP2 MSTORE PUSH1 0xB PUSH1 0x20 MSTORE PUSH1 0x40 DUP2 KECCAK256 PUSH1 0x4 ADD SLOAD DUP2 JUMPDEST DUP2 DUP4 LT ISZERO PUSH2 0xBEB JUMPI PUSH1 0x7 SLOAD PUSH4 0xFFFFFFFF AND PUSH1 0x0 SWAP1 DUP2 MSTORE PUSH1 0xB PUSH1 0x20 MSTORE PUSH1 0x40 DUP2 KECCAK256 PUSH1 0x4 ADD DUP1 SLOAD DUP6 SWAP1 DUP2 LT PUSH2 0xB8E JUMPI PUSH2 0xB8E PUSH2 0x16C1 JUMP JUMPDEST PUSH1 0x0 SWAP2 DUP3 MSTORE PUSH1 0x20 SWAP2 DUP3 SWAP1 KECCAK256 PUSH1 0x40 DUP1 MLOAD DUP1 DUP3 ADD SWAP1 SWAP2 MSTORE SWAP2 ADD SLOAD PUSH1 0x1 PUSH1 0x1 PUSH1 0xA0 SHL SUB DUP2 AND DUP1 DUP4 MSTORE PUSH1 0x1 PUSH1 0xA0 SHL SWAP1 SWAP2 DIV PUSH1 0xFF AND ISZERO ISZERO SWAP3 DUP3 ADD SWAP3 SWAP1 SWAP3 MSTORE SWAP2 POP CALLER SWAP1 SUB PUSH2 0xBDA JUMPI PUSH1 0x1 SWAP2 POP POP PUSH2 0xBEB JUMP JUMPDEST POP PUSH2 0xBE4 DUP4 PUSH2 0x16D7 JUMP JUMPDEST SWAP3 POP PUSH2 0xB5A JUMP JUMPDEST DUP1 PUSH2 0x9D3 JUMPI POP POP PUSH1 0x40 DUP1 MLOAD DUP1 DUP3 ADD DUP3 MSTORE CALLER DUP2 MSTORE SWAP3 ISZERO ISZERO PUSH1 0x20 DUP1 DUP6 ADD SWAP2 DUP3 MSTORE PUSH1 0x7 SLOAD PUSH4 0xFFFFFFFF AND PUSH1 0x0 SWAP1 DUP2 MSTORE PUSH1 0xB DUP3 MSTORE SWAP3 DUP4 KECCAK256 PUSH1 0x4 ADD DUP1 SLOAD PUSH1 0x1 DUP2 ADD DUP3 SSTORE SWAP1 DUP5 MSTORE SWAP3 KECCAK256 SWAP4 MLOAD SWAP4 SWAP1 SWAP2 ADD DUP1 SLOAD SWAP2 MLOAD ISZERO ISZERO PUSH1 0x1 PUSH1 0xA0 SHL MUL PUSH1 0x1 PUSH1 0x1 PUSH1 0xA8 SHL SUB NOT SWAP1 SWAP3 AND PUSH1 0x1 PUSH1 0x1 PUSH1 0xA0 SHL SUB SWAP1 SWAP5 AND SWAP4 SWAP1 SWAP4 OR OR SWAP1 SWAP2 SSTORE POP JUMP JUMPDEST PUSH1 0x9 SLOAD PUSH1 0x1 PUSH1 0x1 PUSH1 0xA0 SHL SUB AND CALLER EQ PUSH2 0xCB0 JUMPI PUSH1 0x40 MLOAD PUSH3 0x461BCD PUSH1 0xE5 SHL DUP2 MSTORE PUSH1 0x20 PUSH1 0x4 DUP3 ADD MSTORE PUSH1 0x11 PUSH1 0x24 DUP3 ADD MSTORE PUSH17 0x3CB7BA903737BA103A34329037BBB732B9 PUSH1 0x79 SHL PUSH1 0x44 DUP3 ADD MSTORE PUSH1 0x64 ADD PUSH2 0x36F JUMP JUMPDEST PUSH1 0x7 SLOAD PUSH4 0xFFFFFFFF AND PUSH1 0x0 SWAP1 DUP2 MSTORE PUSH1 0xB PUSH1 0x20 MSTORE PUSH1 0x40 SWAP1 KECCAK256 PUSH1 0x2 ADD SLOAD TIMESTAMP GT PUSH2 0xD0B JUMPI PUSH1 0x40 MLOAD PUSH3 0x461BCD PUSH1 0xE5 SHL DUP2 MSTORE PUSH1 0x20 PUSH1 0x4 DUP3 ADD MSTORE PUSH1 0xF PUSH1 0x24 DUP3 ADD MSTORE PUSH15 0x3B37BA34B7339039BA34B6361037B7 PUSH1 0x89 SHL PUSH1 0x44 DUP3 ADD MSTORE PUSH1 0x64 ADD PUSH2 0x36F JUMP JUMPDEST PUSH1 0x2 PUSH1 0x7 SLOAD PUSH4 0xFFFFFFFF AND PUSH1 0x0 SWAP1 DUP2 MSTORE PUSH1 0xB PUSH1 0x20 MSTORE PUSH1 0x40 SWAP1 KECCAK256 PUSH1 0x3 ADD SLOAD PUSH1 0xFF AND PUSH1 0x2 DUP2 GT ISZERO PUSH2 0xD3C JUMPI PUSH2 0xD3C PUSH2 0x1257 JUMP JUMPDEST EQ PUSH2 0xD7B JUMPI PUSH1 0x40 MLOAD PUSH3 0x461BCD PUSH1 0xE5 SHL DUP2 MSTORE PUSH1 0x20 PUSH1 0x4 DUP3 ADD MSTORE PUSH1 0xF PUSH1 0x24 DUP3 ADD MSTORE PUSH15 0x1B5A5B195CDD1BDB9948195B991959 PUSH1 0x8A SHL PUSH1 0x44 DUP3 ADD MSTORE PUSH1 0x64 ADD PUSH2 0x36F JUMP JUMPDEST PUSH1 0x7 SLOAD PUSH4 0xFFFFFFFF AND PUSH1 0x0 SWAP1 DUP2 MSTORE PUSH1 0xB PUSH1 0x20 SWAP1 DUP2 MSTORE PUSH1 0x40 DUP1 DUP4 KECCAK256 PUSH1 0x4 ADD DUP1 SLOAD DUP3 MLOAD DUP2 DUP6 MUL DUP2 ADD DUP6 ADD SWAP1 SWAP4 MSTORE DUP1 DUP4 MSTORE DUP5 SWAP4 PUSH2 0xE0B SWAP4 SWAP3 SWAP2 SWAP1 DUP6 SWAP1 DUP5 ADD JUMPDEST DUP3 DUP3 LT ISZERO PUSH2 0xE02 JUMPI PUSH1 0x0 DUP5 DUP2 MSTORE PUSH1 0x20 SWAP1 DUP2 SWAP1 KECCAK256 PUSH1 0x40 DUP1 MLOAD DUP1 DUP3 ADD SWAP1 SWAP2 MSTORE SWAP1 DUP5 ADD SLOAD PUSH1 0x1 PUSH1 0x1 PUSH1 0xA0 SHL SUB DUP2 AND DUP3 MSTORE PUSH1 0x1 PUSH1 0xA0 SHL SWAP1 DIV PUSH1 0xFF AND ISZERO ISZERO DUP2 DUP4 ADD MSTORE DUP3 MSTORE PUSH1 0x1 SWAP1 SWAP3 ADD SWAP2 ADD PUSH2 0xDB7 JUMP JUMPDEST POP POP POP POP PUSH2 0x1157 JUMP JUMPDEST SWAP2 POP SWAP2 POP PUSH1 0x0 DUP2 PUSH1 0x5 SLOAD PUSH2 0xE1F SWAP2 SWAP1 PUSH2 0x16F0 JUMP JUMPDEST SWAP1 POP PUSH1 0x0 PUSH1 0x3 PUSH8 0xDE0B6B3A7640000 PUSH1 0x5 SLOAD PUSH1 0x2 PUSH2 0xE3D SWAP2 SWAP1 PUSH2 0x1703 JUMP JUMPDEST PUSH2 0xE47 SWAP2 SWAP1 PUSH2 0x1703 JUMP JUMPDEST PUSH2 0xE51 SWAP2 SWAP1 PUSH2 0x171A JUMP JUMPDEST SWAP1 POP PUSH1 0x0 PUSH2 0xE67 PUSH8 0xDE0B6B3A7640000 DUP5 PUSH2 0x1703 JUMP JUMPDEST SWAP1 POP DUP2 DUP2 LT PUSH2 0x1039 JUMPI PUSH1 0x7 SLOAD PUSH4 0xFFFFFFFF AND PUSH1 0x0 SWAP1 DUP2 MSTORE PUSH1 0xB PUSH1 0x20 MSTORE PUSH1 0x40 DUP2 KECCAK256 PUSH1 0x1 SWAP1 DUP2 ADD DUP1 SLOAD PUSH1 0xFF NOT AND SWAP1 SWAP2 OR SWAP1 SSTORE PUSH1 0x8 DUP1 SLOAD SWAP2 PUSH2 0xEA5 DUP4 PUSH2 0x16D7 JUMP JUMPDEST SWAP1 SWAP2 SSTORE POP POP PUSH1 0x7 SLOAD PUSH4 0xFFFFFFFF AND PUSH1 0x0 SWAP1 DUP2 MSTORE PUSH1 0xB PUSH1 0x20 MSTORE PUSH1 0x40 SWAP1 KECCAK256 PUSH1 0x3 ADD DUP1 SLOAD PUSH1 0xFF NOT AND SWAP1 SSTORE SELFBALANCE DUP1 PUSH2 0xF10 JUMPI PUSH1 0x40 MLOAD PUSH3 0x461BCD PUSH1 0xE5 SHL DUP2 MSTORE PUSH1 0x20 PUSH1 0x4 DUP3 ADD MSTORE PUSH1 0x13 PUSH1 0x24 DUP3 ADD MSTORE PUSH19 0x6E6F7468696E6720746F207769746864726177 PUSH1 0x68 SHL PUSH1 0x44 DUP3 ADD MSTORE PUSH1 0x64 ADD PUSH2 0x36F JUMP JUMPDEST PUSH1 0x0 PUSH1 0x8 SLOAD PUSH1 0x1 SUB PUSH2 0xF2E JUMPI PUSH2 0xF27 PUSH1 0x3 DUP4 PUSH2 0x171A JUMP JUMPDEST SWAP1 POP PUSH2 0xF53 JUMP JUMPDEST PUSH1 0x8 SLOAD PUSH1 0x2 SUB PUSH2 0xF43 JUMPI PUSH2 0xF27 PUSH1 0x2 DUP4 PUSH2 0x171A JUMP JUMPDEST POP PUSH1 0x2 DUP1 SLOAD PUSH1 0xFF NOT AND PUSH1 0x1 OR SWAP1 SSTORE DUP1 JUMPDEST PUSH1 0x9 SLOAD PUSH1 0x40 MLOAD PUSH1 0x0 SWAP2 PUSH1 0x1 PUSH1 0x1 PUSH1 0xA0 SHL SUB AND SWAP1 DUP4 SWAP1 DUP4 DUP2 DUP2 DUP2 DUP6 DUP8 GAS CALL SWAP3 POP POP POP RETURNDATASIZE DUP1 PUSH1 0x0 DUP2 EQ PUSH2 0xFA0 JUMPI PUSH1 0x40 MLOAD SWAP2 POP PUSH1 0x1F NOT PUSH1 0x3F RETURNDATASIZE ADD AND DUP3 ADD PUSH1 0x40 MSTORE RETURNDATASIZE DUP3 MSTORE RETURNDATASIZE PUSH1 0x0 PUSH1 0x20 DUP5 ADD RETURNDATACOPY PUSH2 0xFA5 JUMP JUMPDEST PUSH1 0x60 SWAP2 POP JUMPDEST POP POP SWAP1 POP DUP1 PUSH2 0xFEA JUMPI PUSH1 0x40 MLOAD PUSH3 0x461BCD PUSH1 0xE5 SHL DUP2 MSTORE PUSH1 0x20 PUSH1 0x4 DUP3 ADD MSTORE PUSH1 0x11 PUSH1 0x24 DUP3 ADD MSTORE PUSH17 0x1DDA5D1A191C985DD85B0819985A5B1959 PUSH1 0x7A SHL PUSH1 0x44 DUP3 ADD MSTORE PUSH1 0x64 ADD PUSH2 0x36F JUMP JUMPDEST PUSH1 0x9 SLOAD PUSH1 0x40 DUP1 MLOAD DUP5 DUP2 MSTORE TIMESTAMP PUSH1 0x20 DUP3 ADD MSTORE PUSH1 0x1 PUSH1 0x1 PUSH1 0xA0 SHL SUB SWAP1 SWAP3 AND SWAP2 PUSH32 0x8ED9BA5FD9426895C74647BEDD96D162E9C409E3DADD567AEBA6AFE82E18E826 SWAP2 ADD PUSH1 0x40 MLOAD DUP1 SWAP2 SUB SWAP1 LOG2 POP POP POP PUSH2 0x1099 JUMP JUMPDEST PUSH1 0x7 SLOAD PUSH4 0xFFFFFFFF AND PUSH1 0x0 SWAP1 DUP2 MSTORE PUSH1 0xB PUSH1 0x20 SWAP1 DUP2 MSTORE PUSH1 0x40 SWAP2 DUP3 SWAP1 KECCAK256 PUSH1 0x3 ADD DUP1 SLOAD PUSH1 0xFF NOT AND PUSH1 0x1 OR SWAP1 SSTORE DUP2 MLOAD DUP8 DUP2 MSTORE SWAP1 DUP2 ADD DUP7 SWAP1 MSTORE PUSH32 0xE9AEA105DE24662E3F5C0BB5DB4FFF641066A5B5F74EA0E1C236B1A249A187D6 SWAP2 ADD PUSH1 0x40 MLOAD DUP1 SWAP2 SUB SWAP1 LOG1 JUMPDEST POP POP POP POP POP JUMP JUMPDEST PUSH1 0xB PUSH1 0x20 MSTORE PUSH1 0x0 SWAP1 DUP2 MSTORE PUSH1 0x40 SWAP1 KECCAK256 DUP1 SLOAD DUP2 SWAP1 PUSH2 0x10BB SWAP1 PUSH2 0x1555 JUMP JUMPDEST DUP1 PUSH1 0x1F ADD PUSH1 0x20 DUP1 SWAP2 DIV MUL PUSH1 0x20 ADD PUSH1 0x40 MLOAD SWAP1 DUP2 ADD PUSH1 0x40 MSTORE DUP1 SWAP3 SWAP2 SWAP1 DUP2 DUP2 MSTORE PUSH1 0x20 ADD DUP3 DUP1 SLOAD PUSH2 0x10E7 SWAP1 PUSH2 0x1555 JUMP JUMPDEST DUP1 ISZERO PUSH2 0x1134 JUMPI DUP1 PUSH1 0x1F LT PUSH2 0x1109 JUMPI PUSH2 0x100 DUP1 DUP4 SLOAD DIV MUL DUP4 MSTORE SWAP2 PUSH1 0x20 ADD SWAP2 PUSH2 0x1134 JUMP JUMPDEST DUP3 ADD SWAP2 SWAP1 PUSH1 0x0 MSTORE PUSH1 0x20 PUSH1 0x0 KECCAK256 SWAP1 JUMPDEST DUP2 SLOAD DUP2 MSTORE SWAP1 PUSH1 0x1 ADD SWAP1 PUSH1 0x20 ADD DUP1 DUP4 GT PUSH2 0x1117 JUMPI DUP3 SWAP1 SUB PUSH1 0x1F AND DUP3 ADD SWAP2 JUMPDEST POP POP POP POP PUSH1 0x1 DUP4 ADD SLOAD PUSH1 0x2 DUP5 ADD SLOAD PUSH1 0x3 SWAP1 SWAP5 ADD SLOAD SWAP3 SWAP4 PUSH1 0xFF SWAP2 DUP3 AND SWAP4 SWAP1 SWAP3 POP AND DUP5 JUMP JUMPDEST PUSH1 0x0 DUP1 PUSH1 0x0 DUP1 PUSH1 0x0 DUP6 MLOAD SWAP1 POP PUSH1 0x0 JUMPDEST DUP2 DUP2 LT ISZERO PUSH2 0x11C3 JUMPI DUP7 DUP2 DUP2 MLOAD DUP2 LT PUSH2 0x1180 JUMPI PUSH2 0x1180 PUSH2 0x16C1 JUMP JUMPDEST PUSH1 0x20 MUL PUSH1 0x20 ADD ADD MLOAD PUSH1 0x20 ADD MLOAD ISZERO ISZERO PUSH1 0x1 ISZERO ISZERO SUB PUSH2 0x11A7 JUMPI PUSH2 0x11A0 DUP5 PUSH2 0x16D7 JUMP JUMPDEST SWAP4 POP PUSH2 0x11B3 JUMP JUMPDEST PUSH2 0x11B0 DUP4 PUSH2 0x16D7 JUMP JUMPDEST SWAP3 POP JUMPDEST PUSH2 0x11BC DUP2 PUSH2 0x16D7 JUMP JUMPDEST SWAP1 POP PUSH2 0x1166 JUMP JUMPDEST POP SWAP2 SWAP6 SWAP1 SWAP5 POP SWAP3 POP POP POP JUMP JUMPDEST PUSH1 0x40 MLOAD DUP1 PUSH1 0xA0 ADD PUSH1 0x40 MSTORE DUP1 PUSH1 0x60 DUP2 MSTORE PUSH1 0x20 ADD PUSH1 0x0 ISZERO ISZERO DUP2 MSTORE PUSH1 0x20 ADD PUSH1 0x0 DUP2 MSTORE PUSH1 0x20 ADD PUSH1 0x0 PUSH1 0x2 DUP2 GT ISZERO PUSH2 0x1204 JUMPI PUSH2 0x1204 PUSH2 0x1257 JUMP JUMPDEST DUP2 MSTORE PUSH1 0x20 ADD PUSH1 0x60 DUP2 MSTORE POP SWAP1 JUMP JUMPDEST PUSH1 0x0 DUP2 MLOAD DUP1 DUP5 MSTORE PUSH1 0x0 JUMPDEST DUP2 DUP2 LT ISZERO PUSH2 0x1237 JUMPI PUSH1 0x20 DUP2 DUP6 ADD DUP2 ADD MLOAD DUP7 DUP4 ADD DUP3 ADD MSTORE ADD PUSH2 0x121B JUMP JUMPDEST POP PUSH1 0x0 PUSH1 0x20 DUP3 DUP7 ADD ADD MSTORE PUSH1 0x20 PUSH1 0x1F NOT PUSH1 0x1F DUP4 ADD AND DUP6 ADD ADD SWAP2 POP POP SWAP3 SWAP2 POP POP JUMP JUMPDEST PUSH4 0x4E487B71 PUSH1 0xE0 SHL PUSH1 0x0 MSTORE PUSH1 0x21 PUSH1 0x4 MSTORE PUSH1 0x24 PUSH1 0x0 REVERT JUMPDEST PUSH1 0x3 DUP2 LT PUSH2 0x128B JUMPI PUSH4 0x4E487B71 PUSH1 0xE0 SHL PUSH1 0x0 MSTORE PUSH1 0x21 PUSH1 0x4 MSTORE PUSH1 0x24 PUSH1 0x0 REVERT JUMPDEST SWAP1 MSTORE JUMP JUMPDEST PUSH1 0x0 PUSH1 0x20 DUP1 DUP4 MSTORE DUP4 MLOAD PUSH1 0xA0 DUP3 DUP6 ADD MSTORE PUSH2 0x12AB PUSH1 0xC0 DUP6 ADD DUP3 PUSH2 0x1211 JUMP JUMPDEST SWAP1 POP DUP2 DUP6 ADD MLOAD PUSH1 0x40 DUP2 ISZERO ISZERO DUP2 DUP8 ADD MSTORE DUP1 DUP8 ADD MLOAD PUSH1 0x60 DUP8 ADD MSTORE PUSH1 0x60 DUP8 ADD MLOAD SWAP2 POP PUSH2 0x12D7 PUSH1 0x80 DUP8 ADD DUP4 PUSH2 0x126D JUMP JUMPDEST PUSH1 0x80 DUP8 ADD MLOAD DUP7 DUP5 SUB PUSH1 0x1F NOT ADD PUSH1 0xA0 DUP9 ADD MSTORE DUP1 MLOAD DUP1 DUP6 MSTORE SWAP1 DUP6 ADD SWAP4 PUSH1 0x0 SWAP4 POP DUP6 ADD SWAP1 JUMPDEST DUP1 DUP5 LT ISZERO PUSH2 0x132D JUMPI DUP5 MLOAD DUP1 MLOAD PUSH1 0x1 PUSH1 0x1 PUSH1 0xA0 SHL SUB AND DUP4 MSTORE DUP7 ADD MLOAD ISZERO ISZERO DUP7 DUP4 ADD MSTORE SWAP4 DUP6 ADD SWAP4 PUSH1 0x1 SWAP4 SWAP1 SWAP4 ADD SWAP3 SWAP1 DUP3 ADD SWAP1 PUSH2 0x12F9 JUMP JUMPDEST POP SWAP8 SWAP7 POP POP POP POP POP POP POP JUMP JUMPDEST PUSH1 0x20 DUP2 MSTORE PUSH1 0x0 PUSH2 0x134C PUSH1 0x20 DUP4 ADD DUP5 PUSH2 0x1211 JUMP JUMPDEST SWAP4 SWAP3 POP POP POP JUMP JUMPDEST PUSH4 0x4E487B71 PUSH1 0xE0 SHL PUSH1 0x0 MSTORE PUSH1 0x41 PUSH1 0x4 MSTORE PUSH1 0x24 PUSH1 0x0 REVERT JUMPDEST PUSH1 0x0 DUP3 PUSH1 0x1F DUP4 ADD SLT PUSH2 0x137A JUMPI PUSH1 0x0 DUP1 REVERT JUMPDEST DUP2 CALLDATALOAD PUSH8 0xFFFFFFFFFFFFFFFF DUP1 DUP3 GT ISZERO PUSH2 0x1395 JUMPI PUSH2 0x1395 PUSH2 0x1353 JUMP JUMPDEST PUSH1 0x40 MLOAD PUSH1 0x1F DUP4 ADD PUSH1 0x1F NOT SWAP1 DUP2 AND PUSH1 0x3F ADD AND DUP2 ADD SWAP1 DUP3 DUP3 GT DUP2 DUP4 LT OR ISZERO PUSH2 0x13BD JUMPI PUSH2 0x13BD PUSH2 0x1353 JUMP JUMPDEST DUP2 PUSH1 0x40 MSTORE DUP4 DUP2 MSTORE DUP7 PUSH1 0x20 DUP6 DUP9 ADD ADD GT ISZERO PUSH2 0x13D6 JUMPI PUSH1 0x0 DUP1 REVERT JUMPDEST DUP4 PUSH1 0x20 DUP8 ADD PUSH1 0x20 DUP4 ADD CALLDATACOPY PUSH1 0x0 PUSH1 0x20 DUP6 DUP4 ADD ADD MSTORE DUP1 SWAP5 POP POP POP POP POP SWAP3 SWAP2 POP POP JUMP JUMPDEST PUSH1 0x0 DUP1 PUSH1 0x40 DUP4 DUP6 SUB SLT ISZERO PUSH2 0x1409 JUMPI PUSH1 0x0 DUP1 REVERT JUMPDEST DUP3 CALLDATALOAD PUSH8 0xFFFFFFFFFFFFFFFF DUP2 GT ISZERO PUSH2 0x1420 JUMPI PUSH1 0x0 DUP1 REVERT JUMPDEST PUSH2 0x142C DUP6 DUP3 DUP7 ADD PUSH2 0x1369 JUMP JUMPDEST SWAP6 PUSH1 0x20 SWAP5 SWAP1 SWAP5 ADD CALLDATALOAD SWAP5 POP POP POP POP JUMP JUMPDEST PUSH1 0x0 DUP1 PUSH1 0x0 PUSH1 0x60 DUP5 DUP7 SUB SLT ISZERO PUSH2 0x1450 JUMPI PUSH1 0x0 DUP1 REVERT JUMPDEST DUP4 CALLDATALOAD PUSH8 0xFFFFFFFFFFFFFFFF DUP2 GT ISZERO PUSH2 0x1467 JUMPI PUSH1 0x0 DUP1 REVERT JUMPDEST PUSH2 0x1473 DUP7 DUP3 DUP8 ADD PUSH2 0x1369 JUMP JUMPDEST SWAP7 PUSH1 0x20 DUP7 ADD CALLDATALOAD SWAP7 POP PUSH1 0x40 SWAP1 SWAP6 ADD CALLDATALOAD SWAP5 SWAP4 POP POP POP POP JUMP JUMPDEST PUSH1 0x0 PUSH1 0x20 DUP3 DUP5 SUB SLT ISZERO PUSH2 0x149B JUMPI PUSH1 0x0 DUP1 REVERT JUMPDEST DUP2 CALLDATALOAD DUP1 ISZERO ISZERO DUP2 EQ PUSH2 0x134C JUMPI PUSH1 0x0 DUP1 REVERT JUMPDEST PUSH1 0x0 PUSH1 0x20 DUP3 DUP5 SUB SLT ISZERO PUSH2 0x14BD JUMPI PUSH1 0x0 DUP1 REVERT JUMPDEST DUP2 CALLDATALOAD PUSH1 0x1 PUSH1 0x1 PUSH1 0xA0 SHL SUB DUP2 AND DUP2 EQ PUSH2 0x134C JUMPI PUSH1 0x0 DUP1 REVERT JUMPDEST PUSH1 0x0 PUSH1 0x20 DUP3 DUP5 SUB SLT ISZERO PUSH2 0x14E6 JUMPI PUSH1 0x0 DUP1 REVERT JUMPDEST POP CALLDATALOAD SWAP2 SWAP1 POP JUMP JUMPDEST PUSH1 0x80 DUP2 MSTORE PUSH1 0x0 PUSH2 0x1500 PUSH1 0x80 DUP4 ADD DUP8 PUSH2 0x1211 JUMP JUMPDEST SWAP1 POP DUP5 ISZERO ISZERO PUSH1 0x20 DUP4 ADD MSTORE DUP4 PUSH1 0x40 DUP4 ADD MSTORE PUSH2 0x151D PUSH1 0x60 DUP4 ADD DUP5 PUSH2 0x126D JUMP JUMPDEST SWAP6 SWAP5 POP POP POP POP POP JUMP JUMPDEST PUSH4 0x4E487B71 PUSH1 0xE0 SHL PUSH1 0x0 MSTORE PUSH1 0x11 PUSH1 0x4 MSTORE PUSH1 0x24 PUSH1 0x0 REVERT JUMPDEST DUP1 DUP3 ADD DUP1 DUP3 GT ISZERO PUSH2 0x154F JUMPI PUSH2 0x154F PUSH2 0x1526 JUMP JUMPDEST SWAP3 SWAP2 POP POP JUMP JUMPDEST PUSH1 0x1 DUP2 DUP2 SHR SWAP1 DUP3 AND DUP1 PUSH2 0x1569 JUMPI PUSH1 0x7F DUP3 AND SWAP2 POP JUMPDEST PUSH1 0x20 DUP3 LT DUP2 SUB PUSH2 0x1589 JUMPI PUSH4 0x4E487B71 PUSH1 0xE0 SHL PUSH1 0x0 MSTORE PUSH1 0x22 PUSH1 0x4 MSTORE PUSH1 0x24 PUSH1 0x0 REVERT JUMPDEST POP SWAP2 SWAP1 POP JUMP JUMPDEST PUSH1 0x0 PUSH4 0xFFFFFFFF DUP1 DUP4 AND DUP2 DUP2 SUB PUSH2 0x15A8 JUMPI PUSH2 0x15A8 PUSH2 0x1526 JUMP JUMPDEST PUSH1 0x1 ADD SWAP4 SWAP3 POP POP POP JUMP JUMPDEST PUSH1 0x1F DUP3 GT ISZERO PUSH2 0x15FC JUMPI PUSH1 0x0 DUP2 DUP2 MSTORE PUSH1 0x20 DUP2 KECCAK256 PUSH1 0x1F DUP6 ADD PUSH1 0x5 SHR DUP2 ADD PUSH1 0x20 DUP7 LT ISZERO PUSH2 0x15D9 JUMPI POP DUP1 JUMPDEST PUSH1 0x1F DUP6 ADD PUSH1 0x5 SHR DUP3 ADD SWAP2 POP JUMPDEST DUP2 DUP2 LT ISZERO PUSH2 0x15F8 JUMPI DUP3 DUP2 SSTORE PUSH1 0x1 ADD PUSH2 0x15E5 JUMP JUMPDEST POP POP POP JUMPDEST POP POP POP JUMP JUMPDEST DUP2 MLOAD PUSH8 0xFFFFFFFFFFFFFFFF DUP2 GT ISZERO PUSH2 0x161B JUMPI PUSH2 0x161B PUSH2 0x1353 JUMP JUMPDEST PUSH2 0x162F DUP2 PUSH2 0x1629 DUP5 SLOAD PUSH2 0x1555 JUMP JUMPDEST DUP5 PUSH2 0x15B2 JUMP JUMPDEST PUSH1 0x20 DUP1 PUSH1 0x1F DUP4 GT PUSH1 0x1 DUP2 EQ PUSH2 0x1664 JUMPI PUSH1 0x0 DUP5 ISZERO PUSH2 0x164C JUMPI POP DUP6 DUP4 ADD MLOAD JUMPDEST PUSH1 0x0 NOT PUSH1 0x3 DUP7 SWAP1 SHL SHR NOT AND PUSH1 0x1 DUP6 SWAP1 SHL OR DUP6 SSTORE PUSH2 0x15F8 JUMP JUMPDEST PUSH1 0x0 DUP6 DUP2 MSTORE PUSH1 0x20 DUP2 KECCAK256 PUSH1 0x1F NOT DUP7 AND SWAP2 JUMPDEST DUP3 DUP2 LT ISZERO PUSH2 0x1693 JUMPI DUP9 DUP7 ADD MLOAD DUP3 SSTORE SWAP5 DUP5 ADD SWAP5 PUSH1 0x1 SWAP1 SWAP2 ADD SWAP1 DUP5 ADD PUSH2 0x1674 JUMP JUMPDEST POP DUP6 DUP3 LT ISZERO PUSH2 0x16B1 JUMPI DUP8 DUP6 ADD MLOAD PUSH1 0x0 NOT PUSH1 0x3 DUP9 SWAP1 SHL PUSH1 0xF8 AND SHR NOT AND DUP2 SSTORE JUMPDEST POP POP POP POP POP PUSH1 0x1 SWAP1 DUP2 SHL ADD SWAP1 SSTORE POP JUMP JUMPDEST PUSH4 0x4E487B71 PUSH1 0xE0 SHL PUSH1 0x0 MSTORE PUSH1 0x32 PUSH1 0x4 MSTORE PUSH1 0x24 PUSH1 0x0 REVERT JUMPDEST PUSH1 0x0 PUSH1 0x1 DUP3 ADD PUSH2 0x16E9 JUMPI PUSH2 0x16E9 PUSH2 0x1526 JUMP JUMPDEST POP PUSH1 0x1 ADD SWAP1 JUMP JUMPDEST DUP2 DUP2 SUB DUP2 DUP2 GT ISZERO PUSH2 0x154F JUMPI PUSH2 0x154F PUSH2 0x1526 JUMP JUMPDEST DUP1 DUP3 MUL DUP2 ISZERO DUP3 DUP3 DIV DUP5 EQ OR PUSH2 0x154F JUMPI PUSH2 0x154F PUSH2 0x1526 JUMP JUMPDEST PUSH1 0x0 DUP3 PUSH2 0x1737 JUMPI PUSH4 0x4E487B71 PUSH1 0xE0 SHL PUSH1 0x0 MSTORE PUSH1 0x12 PUSH1 0x4 MSTORE PUSH1 0x24 PUSH1 0x0 REVERT JUMPDEST POP DIV SWAP1 JUMP INVALID LOG2 PUSH5 0x6970667358 0x22 SLT KECCAK256 EQ 0xC1 0xCE 0xEE LOG3 0x4E 0xAC 0xE5 MOD MOD 0x23 0x5D PUSH8 0xEE8065027856D8B PUSH9 0x92DE751DFB6DF14148 0x25 PUSH5 0x736F6C6343 STOP ADDMOD GT STOP CALLER "},"methodIdentifiers":{"amountOfDonation()":"4befdaea","campaignDuration()":"c398d56d","campaignEnded()":"3bc47fbe","campaignOwner()":"b17fac22","createNewMilestone(string,uint256)":"8e692464","donors(address)":"ca0cdea8","etherBalance()":"ad66e52a","fundingId()":"84c67b76","getFundingcid()":"9cc4e858","getTargetAmount()":"91ac4b88","initialize(string,uint256,uint256)":"977d08c0","makeDonation()":"40ea0a94","milestones(uint256)":"e89e4ed6","numberOfDonors()":"64b2e2d9","showCurrentMillestone()":"5f62d747","targetAmount()":"953b8fb8","voteOnMilestone(bool)":"ba536193","withdrawMilestone()":"bf2928a6"}}}}}