{
  "_format": "hh-sol-artifact-1",
  "contractName": "CrowdFundingContract",
  "sourceName": "contracts/CrowdFundingContract.sol",
  "abi": [
    {
      "anonymous": false,
      "inputs": [
        {
          "indexed": false,
          "internalType": "uint8",
          "name": "version",
          "type": "uint8"
        }
      ],
      "name": "Initialized",
      "type": "event"
    },
    {
      "anonymous": false,
      "inputs": [
        {
          "indexed": true,
          "internalType": "address",
          "name": "donor",
          "type": "address"
        },
        {
          "indexed": false,
          "internalType": "uint256",
          "name": "amount",
          "type": "uint256"
        },
        {
          "indexed": false,
          "internalType": "uint256",
          "name": "date",
          "type": "uint256"
        }
      ],
      "name": "fundsDonated",
      "type": "event"
    },
    {
      "anonymous": false,
      "inputs": [
        {
          "indexed": true,
          "internalType": "address",
          "name": "owner",
          "type": "address"
        },
        {
          "indexed": false,
          "internalType": "uint256",
          "name": "amount",
          "type": "uint256"
        },
        {
          "indexed": false,
          "internalType": "uint256",
          "name": "date",
          "type": "uint256"
        }
      ],
      "name": "fundsWithdrawn",
      "type": "event"
    },
    {
      "anonymous": false,
      "inputs": [
        {
          "indexed": true,
          "internalType": "address",
          "name": "owner",
          "type": "address"
        },
        {
          "indexed": false,
          "internalType": "uint256",
          "name": "datecreated",
          "type": "uint256"
        },
        {
          "indexed": false,
          "internalType": "uint256",
          "name": "period",
          "type": "uint256"
        }
      ],
      "name": "milestoneCreated",
      "type": "event"
    },
    {
      "anonymous": false,
      "inputs": [
        {
          "indexed": false,
          "internalType": "uint256",
          "name": "yesvote",
          "type": "uint256"
        },
        {
          "indexed": false,
          "internalType": "uint256",
          "name": "novote",
          "type": "uint256"
        }
      ],
      "name": "milestoneRejected",
      "type": "event"
    },
    {
      "inputs": [],
      "name": "amountOfDonation",
      "outputs": [
        {
          "internalType": "uint256",
          "name": "",
          "type": "uint256"
        }
      ],
      "stateMutability": "view",
      "type": "function"
    },
    {
      "inputs": [],
      "name": "campaignDuration",
      "outputs": [
        {
          "internalType": "uint256",
          "name": "",
          "type": "uint256"
        }
      ],
      "stateMutability": "view",
      "type": "function"
    },
    {
      "inputs": [],
      "name": "campaignEnded",
      "outputs": [
        {
          "internalType": "bool",
          "name": "",
          "type": "bool"
        }
      ],
      "stateMutability": "view",
      "type": "function"
    },
    {
      "inputs": [],
      "name": "campaignOwner",
      "outputs": [
        {
          "internalType": "address payable",
          "name": "",
          "type": "address"
        }
      ],
      "stateMutability": "view",
      "type": "function"
    },
    {
      "inputs": [
        {
          "internalType": "string",
          "name": "milestoneCID",
          "type": "string"
        },
        {
          "internalType": "uint256",
          "name": "votingPeriod",
          "type": "uint256"
        }
      ],
      "name": "createNewMilestone",
      "outputs": [],
      "stateMutability": "nonpayable",
      "type": "function"
    },
    {
      "inputs": [
        {
          "internalType": "address",
          "name": "",
          "type": "address"
        }
      ],
      "name": "donors",
      "outputs": [
        {
          "internalType": "uint256",
          "name": "",
          "type": "uint256"
        }
      ],
      "stateMutability": "view",
      "type": "function"
    },
    {
      "inputs": [],
      "name": "etherBalance",
      "outputs": [
        {
          "internalType": "uint256",
          "name": "",
          "type": "uint256"
        }
      ],
      "stateMutability": "view",
      "type": "function"
    },
    {
      "inputs": [],
      "name": "fundingId",
      "outputs": [
        {
          "internalType": "string",
          "name": "",
          "type": "string"
        }
      ],
      "stateMutability": "view",
      "type": "function"
    },
    {
      "inputs": [],
      "name": "getFundingcid",
      "outputs": [
        {
          "internalType": "string",
          "name": "",
          "type": "string"
        }
      ],
      "stateMutability": "view",
      "type": "function"
    },
    {
      "inputs": [],
      "name": "getTargetAmount",
      "outputs": [
        {
          "internalType": "uint256",
          "name": "",
          "type": "uint256"
        }
      ],
      "stateMutability": "view",
      "type": "function"
    },
    {
      "inputs": [
        {
          "internalType": "string",
          "name": "_fundingId",
          "type": "string"
        },
        {
          "internalType": "uint256",
          "name": "_amount",
          "type": "uint256"
        },
        {
          "internalType": "uint256",
          "name": "_duration",
          "type": "uint256"
        }
      ],
      "name": "initialize",
      "outputs": [],
      "stateMutability": "nonpayable",
      "type": "function"
    },
    {
      "inputs": [],
      "name": "makeDonation",
      "outputs": [],
      "stateMutability": "payable",
      "type": "function"
    },
    {
      "inputs": [
        {
          "internalType": "uint256",
          "name": "",
          "type": "uint256"
        }
      ],
      "name": "milestones",
      "outputs": [
        {
          "internalType": "string",
          "name": "milestoneCID",
          "type": "string"
        },
        {
          "internalType": "bool",
          "name": "approved",
          "type": "bool"
        },
        {
          "internalType": "uint256",
          "name": "votingPeriod",
          "type": "uint256"
        },
        {
          "internalType": "enum CrowdFundingContract.MilestoneStatus",
          "name": "status",
          "type": "uint8"
        }
      ],
      "stateMutability": "view",
      "type": "function"
    },
    {
      "inputs": [],
      "name": "numberOfDonors",
      "outputs": [
        {
          "internalType": "uint256",
          "name": "",
          "type": "uint256"
        }
      ],
      "stateMutability": "view",
      "type": "function"
    },
    {
      "inputs": [],
      "name": "showCurrentMillestone",
      "outputs": [
        {
          "components": [
            {
              "internalType": "string",
              "name": "milestoneCID",
              "type": "string"
            },
            {
              "internalType": "bool",
              "name": "approved",
              "type": "bool"
            },
            {
              "internalType": "uint256",
              "name": "votingPeriod",
              "type": "uint256"
            },
            {
              "internalType": "enum CrowdFundingContract.MilestoneStatus",
              "name": "status",
              "type": "uint8"
            },
            {
              "components": [
                {
                  "internalType": "address",
                  "name": "donorAddress",
                  "type": "address"
                },
                {
                  "internalType": "bool",
                  "name": "vote",
                  "type": "bool"
                }
              ],
              "internalType": "struct CrowdFundingContract.MilestoneVote[]",
              "name": "votes",
              "type": "tuple[]"
            }
          ],
          "internalType": "struct CrowdFundingContract.Milestone",
          "name": "",
          "type": "tuple"
        }
      ],
      "stateMutability": "view",
      "type": "function"
    },
    {
      "inputs": [],
      "name": "targetAmount",
      "outputs": [
        {
          "internalType": "uint256",
          "name": "",
          "type": "uint256"
        }
      ],
      "stateMutability": "view",
      "type": "function"
    },
    {
      "inputs": [
        {
          "internalType": "bool",
          "name": "vote",
          "type": "bool"
        }
      ],
      "name": "voteOnMilestone",
      "outputs": [],
      "stateMutability": "nonpayable",
      "type": "function"
    },
    {
      "inputs": [],
      "name": "withdrawMilestone",
      "outputs": [],
      "stateMutability": "nonpayable",
      "type": "function"
    },
    {
      "stateMutability": "payable",
      "type": "receive"
    }
  ],
  "bytecode": "0x608060405234801561001057600080fd5b50611772806100206000396000f3fe60806040526004361061010d5760003560e01c8063977d08c011610095578063ba53619311610064578063ba53619314610285578063bf2928a6146102a5578063c398d56d146102ba578063ca0cdea8146102d0578063e89e4ed6146102fd57600080fd5b8063977d08c0146102155780639cc4e85814610235578063ad66e52a1461024a578063b17fac221461025d57600080fd5b806364b2e2d9116100dc57806364b2e2d91461019357806384c67b76146101a85780638e692464146101ca57806391ac4b88146101ea578063953b8fb8146101ff57600080fd5b80633bc47fbe1461011957806340ea0a94146101485780634befdaea146101525780635f62d7471461017157600080fd5b3661011457005b600080fd5b34801561012557600080fd5b506002546101339060ff1681565b60405190151581526020015b60405180910390f35b61015061032d565b005b34801561015e57600080fd5b506004545b60405190815260200161013f565b34801561017d57600080fd5b506101866104b8565b60405161013f919061128f565b34801561019f57600080fd5b50600554610163565b3480156101b457600080fd5b506101bd61063e565b60405161013f9190611339565b3480156101d657600080fd5b506101506101e53660046113f6565b6106cc565b3480156101f657600080fd5b50600354610163565b34801561020b57600080fd5b5061016360035481565b34801561022157600080fd5b5061015061023036600461143b565b6108a4565b34801561024157600080fd5b506101bd6109d9565b34801561025657600080fd5b5047610163565b34801561026957600080fd5b506009546040516001600160a01b03909116815260200161013f565b34801561029157600080fd5b506101506102a0366004611489565b610a6b565b3480156102b157600080fd5b50610150610c62565b3480156102c657600080fd5b5061016360065481565b3480156102dc57600080fd5b506101636102eb3660046114ab565b600a6020526000908152604090205481565b34801561030957600080fd5b5061031d6103183660046114d4565b6110a0565b60405161013f94939291906114ed565b600254349060ff16156103785760405162461bcd60e51b815260206004820152600e60248201526d18d85b5c185a59db88115b99195960921b60448201526064015b60405180910390fd5b600081116103bd5760405162461bcd60e51b8152602060048201526012602482015271596f7520646964206e6f7420646f6e61746560701b604482015260640161036f565b60085460030361040f5760405162461bcd60e51b815260206004820152601960248201527f6e6f206c6f6e6765722074616b696e6720646f6e6174696f6e00000000000000604482015260640161036f565b336000908152600a6020526040812054900361043e57600160056000828254610438919061153c565b90915550505b336000908152600a60205260408120805483929061045d90849061153c565b925050819055508060046000828254610476919061153c565b90915550506040805182815242602082015233917fd29f399086278dee53663dd4e0301a10b961dca23fe84dd7da6d09519a3fa63f910160405180910390a250565b6104c06111cf565b60075463ffffffff166000908152600b602052604090819020815160a081019092528054829082906104f190611555565b80601f016020809104026020016040519081016040528092919081815260200182805461051d90611555565b801561056a5780601f1061053f5761010080835404028352916020019161056a565b820191906000526020600020905b81548152906001019060200180831161054d57829003601f168201915b5050509183525050600182015460ff9081161515602083015260028084015460408401526003840154606090930192909116908111156105ac576105ac611257565b60028111156105bd576105bd611257565b815260200160048201805480602002602001604051908101604052809291908181526020016000905b8282101561063157600084815260209081902060408051808201909152908401546001600160a01b0381168252600160a01b900460ff161515818301528252600190920191016105e6565b5050505081525050905090565b6001805461064b90611555565b80601f016020809104026020016040519081016040528092919081815260200182805461067790611555565b80156106c45780601f10610699576101008083540402835291602001916106c4565b820191906000526020600020905b8154815290600101906020018083116106a757829003601f168201915b505050505081565b6009546001600160a01b0316331461071e5760405162461bcd60e51b81526020600482015260156024820152743cb7ba9030b932903737ba103a34329037bbb732b960591b604482015260640161036f565b600260075463ffffffff166000908152600b602052604090206003015460ff16600281111561074f5761074f611257565b0361079c5760405162461bcd60e51b815260206004820152601c60248201527f596f75206861766520612070656e64696e67206d696c6573746f6e6500000000604482015260640161036f565b6008546003036107ee5760405162461bcd60e51b815260206004820152601c60248201527f6e6f206d6f7265206d696c6573746f6e657320746f2063726561746500000000604482015260640161036f565b6007805463ffffffff169060006108048361158f565b82546101009290920a63ffffffff818102199093169183160217909155600754166000908152600b602052604090209050806108408482611601565b5060018101805460ff199081169091556002808301849055600383018054909216179055604080514281526020810184905233917f369b968b1b19cd17fac61667f3b2c51629d76d608ab6028eae885b6d667a5d19910160405180910390a2505050565b600054610100900460ff16158080156108c45750600054600160ff909116105b806108de5750303b1580156108de575060005460ff166001145b6109415760405162461bcd60e51b815260206004820152602e60248201527f496e697469616c697a61626c653a20636f6e747261637420697320616c72656160448201526d191e481a5b9a5d1a585b1a5e995960921b606482015260840161036f565b6000805460ff191660011790558015610964576000805461ff0019166101001790555b600980546001600160a01b0319163217905560016109828582611601565b506003839055600682905580156109d3576000805461ff0019169055604051600181527f7f26b83ff96e1f2b6a682f133852f6798a09c465da95921460cefb38474024989060200160405180910390a15b50505050565b6060600180546109e890611555565b80601f0160208091040260200160405190810160405280929190818152602001828054610a1490611555565b8015610a615780601f10610a3657610100808354040283529160200191610a61565b820191906000526020600020905b815481529060010190602001808311610a4457829003601f168201915b5050505050905090565b600260075463ffffffff166000908152600b602052604090206003015460ff166002811115610a9c57610a9c611257565b14610ae95760405162461bcd60e51b815260206004820152601960248201527f63616e206e6f7420766f7465206f6e206d696c6573746f6e6500000000000000604482015260640161036f565b336000908152600a60205260408120549003610b3d5760405162461bcd60e51b81526020600482015260136024820152723cb7ba9030b932903737ba1030903237b737b960691b604482015260640161036f565b60075463ffffffff166000908152600b6020526040812060040154815b81831015610beb5760075463ffffffff166000908152600b60205260408120600401805485908110610b8e57610b8e6116c1565b6000918252602091829020604080518082019091529101546001600160a01b038116808352600160a01b90910460ff161515928201929092529150339003610bda576001915050610beb565b50610be4836116d7565b9250610b5a565b806109d3575050604080518082018252338152921515602080850191825260075463ffffffff166000908152600b825292832060040180546001810182559084529220935193909101805491511515600160a01b026001600160a81b03199092166001600160a01b03909416939093171790915550565b6009546001600160a01b03163314610cb05760405162461bcd60e51b81526020600482015260116024820152703cb7ba903737ba103a34329037bbb732b960791b604482015260640161036f565b60075463ffffffff166000908152600b60205260409020600201544211610d0b5760405162461bcd60e51b815260206004820152600f60248201526e3b37ba34b7339039ba34b6361037b760891b604482015260640161036f565b600260075463ffffffff166000908152600b602052604090206003015460ff166002811115610d3c57610d3c611257565b14610d7b5760405162461bcd60e51b815260206004820152600f60248201526e1b5a5b195cdd1bdb9948195b991959608a1b604482015260640161036f565b60075463ffffffff166000908152600b6020908152604080832060040180548251818502810185019093528083528493610e0b93929190859084015b82821015610e0257600084815260209081902060408051808201909152908401546001600160a01b0381168252600160a01b900460ff16151581830152825260019092019101610db7565b50505050611157565b91509150600081600554610e1f91906116f0565b905060006003670de0b6b3a76400006005546002610e3d9190611703565b610e479190611703565b610e51919061171a565b90506000610e67670de0b6b3a764000084611703565b90508181106110395760075463ffffffff166000908152600b602052604081206001908101805460ff191690911790556008805491610ea5836116d7565b909155505060075463ffffffff166000908152600b60205260409020600301805460ff191690554780610f105760405162461bcd60e51b81526020600482015260136024820152726e6f7468696e6720746f20776974686472617760681b604482015260640161036f565b6000600854600103610f2e57610f2760038361171a565b9050610f53565b600854600203610f4357610f2760028361171a565b506002805460ff19166001179055805b6009546040516000916001600160a01b03169083908381818185875af1925050503d8060008114610fa0576040519150601f19603f3d011682016040523d82523d6000602084013e610fa5565b606091505b5050905080610fea5760405162461bcd60e51b81526020600482015260116024820152701dda5d1a191c985dd85b0819985a5b1959607a1b604482015260640161036f565b600954604080518481524260208201526001600160a01b03909216917f8ed9ba5fd9426895c74647bedd96d162e9c409e3dadd567aeba6afe82e18e826910160405180910390a2505050611099565b60075463ffffffff166000908152600b6020908152604091829020600301805460ff1916600117905581518781529081018690527fe9aea105de24662e3f5c0bb5db4fff641066a5b5f74ea0e1c236b1a249a187d6910160405180910390a15b5050505050565b600b602052600090815260409020805481906110bb90611555565b80601f01602080910402602001604051908101604052809291908181526020018280546110e790611555565b80156111345780601f1061110957610100808354040283529160200191611134565b820191906000526020600020905b81548152906001019060200180831161111757829003601f168201915b5050505060018301546002840154600390940154929360ff918216939092501684565b60008060008060008551905060005b818110156111c357868181518110611180576111806116c1565b602002602001015160200151151560011515036111a7576111a0846116d7565b93506111b3565b6111b0836116d7565b92505b6111bc816116d7565b9050611166565b50919590945092505050565b6040518060a0016040528060608152602001600015158152602001600081526020016000600281111561120457611204611257565b8152602001606081525090565b6000815180845260005b818110156112375760208185018101518683018201520161121b565b506000602082860101526020601f19601f83011685010191505092915050565b634e487b7160e01b600052602160045260246000fd5b6003811061128b57634e487b7160e01b600052602160045260246000fd5b9052565b60006020808352835160a0828501526112ab60c0850182611211565b905081850151604081151581870152808701516060870152606087015191506112d7608087018361126d565b6080870151868403601f190160a0880152805180855290850193600093508501905b8084101561132d57845180516001600160a01b031683528601511515868301529385019360019390930192908201906112f9565b50979650505050505050565b60208152600061134c6020830184611211565b9392505050565b634e487b7160e01b600052604160045260246000fd5b600082601f83011261137a57600080fd5b813567ffffffffffffffff8082111561139557611395611353565b604051601f8301601f19908116603f011681019082821181831017156113bd576113bd611353565b816040528381528660208588010111156113d657600080fd5b836020870160208301376000602085830101528094505050505092915050565b6000806040838503121561140957600080fd5b823567ffffffffffffffff81111561142057600080fd5b61142c85828601611369565b95602094909401359450505050565b60008060006060848603121561145057600080fd5b833567ffffffffffffffff81111561146757600080fd5b61147386828701611369565b9660208601359650604090950135949350505050565b60006020828403121561149b57600080fd5b8135801515811461134c57600080fd5b6000602082840312156114bd57600080fd5b81356001600160a01b038116811461134c57600080fd5b6000602082840312156114e657600080fd5b5035919050565b6080815260006115006080830187611211565b9050841515602083015283604083015261151d606083018461126d565b95945050505050565b634e487b7160e01b600052601160045260246000fd5b8082018082111561154f5761154f611526565b92915050565b600181811c9082168061156957607f821691505b60208210810361158957634e487b7160e01b600052602260045260246000fd5b50919050565b600063ffffffff8083168181036115a8576115a8611526565b6001019392505050565b601f8211156115fc57600081815260208120601f850160051c810160208610156115d95750805b601f850160051c820191505b818110156115f8578281556001016115e5565b5050505b505050565b815167ffffffffffffffff81111561161b5761161b611353565b61162f816116298454611555565b846115b2565b602080601f831160018114611664576000841561164c5750858301515b600019600386901b1c1916600185901b1785556115f8565b600085815260208120601f198616915b8281101561169357888601518255948401946001909101908401611674565b50858210156116b15787850151600019600388901b60f8161c191681555b5050505050600190811b01905550565b634e487b7160e01b600052603260045260246000fd5b6000600182016116e9576116e9611526565b5060010190565b8181038181111561154f5761154f611526565b808202811582820484141761154f5761154f611526565b60008261173757634e487b7160e01b600052601260045260246000fd5b50049056fea264697066735822122014c1ceeea34eace50606235d670ee8065027856d8b6892de751dfb6df141482564736f6c63430008110033",
  "linkReferences": {},
  "deployedLinkReferences": {}
}